:020000040800F2
:10000000C015002005010008DF3C00087B3800080F
:10001000DD3C000885160008314C00080000000097
:100020000000000000000000000000001D3F00086C
:1000300093190008000000001D3D00083D44000821
:100040001F0100081F0100081F0100081F01000810
:100050001F0100081F0100081F0100081F01000800
:100060001F0100081F0100081F0100081F010008F0
:100070001F010008451900081F0100085119000858
:100080005D1900081F0100081F0100081F0100087A
:100090001F0100081F0100081F0100081F010008C0
:1000A0001F010008A14400081F0100081F010008EB
:1000B0001F0100081F0100081F0100081F010008A0
:1000C0001F0100081F0100081F0100081F01000890
:1000D0001F010008194C0008254C00081F010008EA
:1000E0001F0100081F0100081F010008DFF810D0E1
:1000F00001F0DCF800480047B15F0008AFF3008072
:10010000C01500200648804706480047FEE7FEE786
:10011000FEE7FEE7FEE7FEE7FEE7FEE7FEE7FEE7B7
:100120009F440008ED0000082DE9F05F054600201F
:1001300092469B4688460646814640241BE0284658
:1001400041464746224600F020F853465A46C01A18
:10015000914110D311461846224600F06FFC2D1A2B
:1001600067EB01084F4622460120002100F066FCA3
:1001700017EB00094E41201EA4F10104DFDC4846C4
:1001800031462A464346BDE8F09F202A04DB203A48
:1001900021FA02F00021704721FA02F3D040C2F1A7
:1001A00020029140084319467047D2B201E000F89E
:1001B000012B491EFBD270470022F6E710B513460B
:1001C0000A4604461946FFF7F0FF204610BD00001E
:1001D00000B58DB0099000920B904FF0FF300A905F
:1001E00000200C9004480690044807906A4609A82D
:1001F00000F024FF0DB000BD591000087710000872
:100200000FB400B58DB010A909900B9000914FF07C
:10021000FF300A9000200C90054806900548079092
:100220006A4609A80F9900F009FF0DB05DF814FBAC
:1002300059100008771000082DE9FF5F1D464FF0A8
:10024000FF3BD5E9014691465F464FF00008A9699A
:100250007F1C01988847296A824688470028F6D182
:10026000BAF1FF3F0CD024F4C064002E19DD600603
:1002700014D5BAF12B0F09D0BAF12D0F0ED103E02E
:10028000584604B0BDE8F09F44F48064A9697F1C1F
:1002900001988847761E8246002E02DDBAF1300FA3
:1002A00003D0B9F1000F26D032E0A969761E44F4DC
:1002B00000747F1C019888478246002E05DDBAF144
:1002C000780F06D0BAF1580F03D0B9F1000F10D053
:1002D0001EE0B9F1000F02D0B9F1100F18D1A969D1
:1002E000761E24F400747F1C0198884782461020F3
:1002F00002E0082000E00A20814609E008FB090826
:10030000A969761E44F400747F1C019888478246D0
:10031000002E05DD4946504600F0B1FB0028EDDA1D
:10032000E96901988847A00502D46FF00100A8E7A9
:10033000E00725D1600613D5600502D5C8F100009D
:1003400000E0404629680A1D2A600968220501D597
:10035000087015E0220701D5088011E008600FE061
:100360002868011D29600068210502D580F80080F9
:1003700006E0210702D5A0F8008001E0C0F8008067
:1003800038467EE7F0B480EA0102D40F4200B2EBB7
:10039000410F02D20246084611464A0042D0C30D20
:1003A000DDB2C1F3C752AD1A202D35DAC1F3160103
:1003B00041F4000204B15242C5F1200602FA06F1EE
:1003C0002A411044B3EBD05F23D0C4B1012DA0EB80
:1003D000C35009DCF0BC4FF0004202EAC352DBB26A
:1003E00000F5000000F061BE400000F1807000EBFD
:1003F000C350A0F1807040EAD170490009E049087B
:1004000041EAC071A0EBC35000F50000400800EBCA
:10041000C350F0BC00F040BE6142012202EB41013A
:10042000001BF6E7F0BC704781F00041AAE780F0BE
:100430000040A7E780EA010210B502F00043400047
:1004400022D04A001FD0010E01EB1261C0F356000A
:10045000C2F3560240F4000042F40002A0FB022066
:1004600000047F39140400D0401C50EA124001D42B
:100470004000491EC2B20C0604EBD010401C4008DC
:10048000802A02D003E0002010BD20F001000029E6
:1004900000DA0020184310BD30B480EA010202F0F7
:1004A000004530F0004221F0004013D090B1C30D60
:1004B000D40DC2F31601C0F31600E41A41F4000192
:1004C00040F400027D34914201D3641C00E04900F5
:1004D000002C02DA30BC002070474FF400000023EB
:1004E000914201D3891A034340084FEA4101F7D1F1
:1004F00051B1914202D14FF0004105E002D24FF0DC
:10050000010101E06FF0010103EBC450284430BC4D
:1005100000F0C2BD420005D0C0F3C7525242914222
:1005200001DC0020704700EBC15070472DE9FE4F01
:10053000804681EA0300C00F0C46009021F0004184
:1005400023F00045B8EB0200A94105D24046214600
:1005500090461C460B46024623F00040104347D00D
:10056000270DC7F30A00C3F30A510290401A019005
:1005700040286BDAC3F3130040F4801B00989246C6
:1005800020B10023D2EB030A63EB0B0B0198594611
:10059000C0F14002504600F051FA06460D46504662
:1005A0005946019A00F059FA10EB08006141002405
:1005B00087EA115284EAE7731A4340D0009A62B383
:1005C000019A012A4FEA075215DC001B61EB020178
:1005D0004FF0004202EA0752CDE90042001C41F50B
:1005E000801132462B4600F0EAFD03B0BDE8F08FE3
:1005F00040462146F9E7001B61EB0201001C41F572
:10060000801300185B412018A2F5001747EB030187
:1006100040EAD570B6196D4111E06D084FEA360613
:1006200045EAC0754FEA0752001B61EB0201001C4E
:1006300041F5801149084FEA300000195141324616
:100640002B4603B0BDE8F04F00F0AABD0098012290
:1006500040000023D0EB020263EBE07300982146D8
:100660004FEAE074B8EB000061EB0401E9E783F0C6
:1006700000435BE781F0004158E72DE9FE4F81EA36
:10068000030404F0004421F0004100944FF0000BFB
:1006900023F0004350EA01045ED052EA03045BD029
:1006A000C3F30A54C1F30A552C44A4F2F334019461
:1006B000A0FB0254C1F3130141F48011C3F31303EF
:1006C00043F4801301FB024400FB034E840A970AA3
:1006D00044EA815447EA8357A4FB076802958D0AD0
:1006E00005FB07854FEA932C04FB0C542705029D5C
:1006F0004FEA065847EA1637B5EB08056EEB070CCC
:10070000870E920E47EA811742EA8312A7FB020185
:10071000B6EB0B0164EB00042B0D43EA0C335E18BF
:1007200044EB1C50DA465146E7FB0201C5F31304C3
:100730004FEA0B3343EA14534FEA0432019C43EA75
:100740000603A4F10C040294009CCDE900B400F06F
:1007500036FD03B0BDE8F08F00200146F9E72DE932
:10076000F04D81EA030404F0004B21F000451446EB
:100770004FF0000A23F0004150EA050220D054EA6D
:1007800001021DD0C5F30A570246C5F31303C1F396
:100790001300C1F30A5640F4801543F48013A7EB0D
:1007A0000608101BD64608F2FD3873EB050002D38D
:1007B00008F1010801E092185B41B8F1000F03DA7B
:1007C00000200146BDE8F08D00204FF48011064660
:1007D00084460EE0171B73EB050705D3121B63EB72
:1007E000050306434CEA010C49084FEA3000921811
:1007F0005B4150EA0107EDD152EA030012D082EAD0
:10080000040083EA0501084305D0101BAB4106D262
:100810000122002306E000224FF0004302E06FF0C7
:10082000010253101AEB06004CEB085110EB0A00C2
:1008300041EB0B01BDE8F04D00F0B2BC70B521F00A
:10084000004303430CD0C1F30A550024D5EB040543
:1008500064EB0403D617AD1AB34102DB0020014656
:1008600070BD201841EB025170BDC10F80EAE070ED
:100870000844CA079623002100F017BC96230022E3
:10088000114600F012BC0EB5C10F80EAE0700844BA
:10089000CA07002140F233438DE80E000A460B469A
:1008A00000F08DFC03B000BD0EB540F23341029163
:1008B0000021CDE900110A460B4600F080FC03B090
:1008C00000BD00F0004220F00040C10DC0F3160052
:1008D00040F400007F2901DA00207047962903DCEC
:1008E000C1F19601C84001E096398840002AF4D051
:1008F0004042704720F00040C10DC0F3160040F4A4
:1009000000007F2901DA00207047962903DCC1F13D
:100910009601C840704796398840704770B5C1F35A
:100920000A5201F000450024C1F3130140F2FF33E5
:1009300041F480119A4201DA002070BD40F2334345
:100940009A42A2F2334203DC5242FFF71EFC00E05F
:1009500090402C43F1D0404270BDC1F30A5210B513
:10096000C1F3130140F2FF3341F480119A4201DADE
:10097000002010BD40F233439A42A2F2334203DC1E
:100980005242FFF702FC10BD904010BD00F0004243
:1009900030F000400AD0C10D01F56071C0F31600BF
:1009A00042EA0151C2084007114370470020014646
:1009B0007047000030B5041E71F1000404DB4FF0F5
:1009C0000044404264EB0101141E73F1000405DB96
:1009D0001C464FF00043524263EB04038B4208BFB6
:1009E000824230BD30B5041E71F1000404DB4FF0CB
:1009F0000044404264EB0101141E73F1000405DB66
:100A00001C464FF00043524263EB0403994208BF77
:100A1000904230BD002801DBC0F10040002901DB1D
:100A2000C1F1004181427047002801DBC0F1004064
:100A3000002901DBC1F1004188427047202A04DB14
:100A4000203A00FA02F1002070479140C2F12003E1
:100A500020FA03F3194390407047202A06DBCB1796
:100A6000203A41FA02F043EAE07306E041FA02F369
:100A7000D040C2F1200291400843194670473A28FD
:100A800000D2303820F02002412A01D3A2F13700F1
:100A9000884201D34FF0FF3070472DE9FF4F1C46CD
:100AA00081B00021D4E9016791464FF0FF358A46B5
:100AB0008846A1696D1C02988847216A8346884749
:100AC0000028F6D1BBF1FF3F0CD026F4C066002F02
:100AD0001ADD700615D5BBF12B0F0AD0BBF12D0F17
:100AE0000FD104E04FF0FF3005B0BDE8F08F46F4C1
:100AF0008066A1696D1C029888477F1E8346002F7F
:100B000002DDBBF1300F03D0B9F1000F2AD025E090
:100B1000A1696D1C46F400767F1E029888478346C3
:100B2000002F05DDBBF1780F06D0BBF1580F03D0C5
:100B3000B9F1000F10D011E0B9F1000F02D0B9F1F6
:100B4000100F0BD1A1696D1C26F400767F1E029850
:100B500088478346102000E0082081464FEAE9706C
:100B6000009017E00A20F8E74346AAFB092803FB98
:100B70000980DDF800C07F1E0AFB0C0112EB0B0A96
:100B800041EBEB78A16946F4007605F10105029886
:100B900088478346002F06DD49465846FFF76FFF1A
:100BA0005FEA000BE0D5E16902988847B00502D4FE
:100BB0006FF0010098E7F00718D1700610D57005A6
:100BC000514605D50023D1EB030163EB080200E099
:100BD00042462068031D23600068C0E9001205E05A
:100BE0002068011D21600068C0E900A828467BE755
:100BF0002DE9FF5FD2E901A74FF0000891699946FE
:100C00001446DDF838B0464601988847054659EA4B
:100C10000B0005D009E0A169761C019888470546BC
:100C2000216A284688470028F5D1681C03D05FEA6E
:100C3000CA7005D015E04FF0FF3004B0BDE8F09F5A
:100C40002068011D2160D0F800800AE05FEACA70C8
:100C500001D108F8015BA169761C7F1E01988847C5
:100C60000546002F1ADD681C18D0B9F1000F0DD011
:100C7000E81705EBD060421120F01F0059F8221050
:100C80002A1A012090400142E0D107E0BBF1000F99
:100C9000DCD1216A284688470028D7D0E16901982D
:100CA0008847BBF1000F07D1002E05DD5FEACA704F
:100CB00002D1002188F80010A068B84203DDBBF122
:100CC000000F03D017B16FF00100B6E73046B4E76C
:100CD0002DE9FF4F087883B09946FF2805D0491CBD
:100CE0002D2804D00024002008E000200BE001247F
:100CF000F9E700EB800003EB4000491C0B78FF2B69
:100D0000F7D104B1404200230293147819461D46DE
:100D10002D2C01D02B2C04D1521C2D2C13D00024AF
:100D20000294AA461478FF2C0FD00A25A3FB05785D
:100D300001FB05814FF0000C03FB0C11521CE31961
:100D40004AEB0101EEE70124EAE7814453EA01009E
:100D500002D019F5C87F06DA03980021C0E9001116
:100D600007B0BDE8F08F0025AE4E2F46DFF8B88201
:100D7000184600F04BFCCDE90001B9F1000002DAA1
:100D8000C9F1000400E004460023A74A1AEB030B54
:100D900042EB045A12E0E00707D02A4633463846B1
:100DA0004146FFF76AFC074688462A463346104606
:100DB0001946FFF762FC05460E466410002CEAD186
:100DC000DDE90001B9F1000F5A46534606DAFFF794
:100DD000C6FC3A464346FFF7C2FC05E0FFF74DFC70
:100DE0003A464346FFF749FC029A0AB181F00041B6
:100DF000039AC2E90001B3E72DE9FF4F1F468DB00A
:100E0000D7E901464FF0FF382E2045464FF0000944
:100E10000B90B9696D1C0E988847396A82468847DD
:100E20000028F6D1BAF1FF3F0AD024F4D064002E96
:100E300011DDBAF12B0F08D0BAF12D0F0BD102E062
:100E4000404611B08DE744F48064B9696D1C0E987A
:100E500088478246761E6946600501D52D2000E050
:100E60002B208DF8000001F1010B0DF1200809E0A5
:100E7000B9696D1C0E98884782460F9844F4007437
:100E8000761E0560002E02DDBAF1300FF0D00B990E
:100E90008A453ED144F0800406E00F99681CA9F110
:100EA000010944F400740860B9696D1C761E0E983F
:100EB000884782463028F0D02BE00B998A4505D12F
:100EC000200603D444F08004761E18E0504604F057
:100ED000B4FA08B30DF11301761E44F400748B4587
:100EE00008D2AAF130000BF8010B200607D5A9F1B2
:100EF000010003E0200602D409F101008146A005AB
:100F000002D50F99681C0860B9696D1C0E98884756
:100F10008246002ED1DC53E0002E51DDBAF1650F80
:100F200002D0BAF1450F4BD1A00549D5B9696D1C66
:100F300024F44074761E0E9888478246002E0CDDFD
:100F40002B2804D0BAF12D0F07D144F48074B9696D
:100F50006D1C0E9888478246761EE00501D52D212E
:100F600000E02B2108F8011BCDF82C8021E00DF1C9
:100F70002901761E44F4007488450CD2AAF1300091
:100F800010F0FF0088F8000002D10B99884509D9BC
:100F900008F1010806E0E00501D5244801E042F22D
:100FA0000F708146B9696D1C0E98884782460F986C
:100FB0000560002E04DD504604F03FFA0028D6D12B
:100FC000F9690E988847FF208BF8000088F8000028
:100FD0000020069007904B466A4608A906A8FFF72E
:100FE00077FEA00502D46FF001002AE714F0240F69
:100FF0000AD0E00714D1DDE906123868031D3B6012
:101000000068C0E900120BE0DDE9060100F00AFB10
:101010000146E00704D13868021D3A6000680160AB
:1010200028460EE7000014400000F03FF1D8FFFF13
:10103000026811441378016018467047D160044972
:1010400051610449116200211161114600F046B955
:1010500031100008D1120008426842B1016811F84D
:10106000013B23B1521EC0E900121846704701210E
:10107000C160881E704742685AB1C368016843B9AD
:1010800083688B4205D0491E521CC0E90012002023
:1010900070474FF0FF3070470029A8BF7047401CD1
:1010A000490008BF20F00100704710B4B0FA80FC7E
:1010B00000FA0CF050EA010404BF10BC704749B1BB
:1010C000CCF1200421FA04F411FA0CF118BF01212B
:1010D00021430843A3EB0C01CB1D4FEA00614FEA0B
:1010E000102042BF002010BC704700EBC3501044DA
:1010F0000029A4BF10BC7047401C490008BF20F065
:10110000010010BC7047F0B4002802DCF0BC0020E5
:101110007047C0F3C751C0F3160040F40000CA077F
:1011200001D14000491E3F2202EB61050022114619
:101130004FF4000626FA01F31344D418844201D870
:10114000001B1A464000491C1729F3DD510081425B
:1011500002D24FF0FF3100E0002102EBC550F0BC9D
:10116000FFF79ABF10B541000CD0C0F3C7519629C4
:1011700008DC7E2909DC06DB410204D000F00040D7
:1011800040F07E5010BD002010BDC1F19604C4F1A6
:10119000200100FA01F1E040FFF77EFFA04010BD02
:1011A00010B5141E73F1000408DA401C41F100016F
:1011B00092185B411A4301D120F0010010BD2DE9C6
:1011C000F04D92469B4611B1B1FA81F202E0B0FABD
:1011D00080F220329046FFF731FC04460F4640EA89
:1011E0000A0041EA0B0153465A46084313D0114600
:1011F00053EA010019D0C8F140025046FEF7C5FF7E
:1012000005460E46504659464246FFF717FC08432E
:1012100005D0012004E020463946BDE8F08D0020CD
:10122000054346EAE0762C4337430A986305E40A0F
:10123000A0EB08000022FD0A44EA47540A3002D518
:1012400000200146E9E7010510196941DDE908457B
:1012500000196941BDE8F04DA2E710B500F0004467
:1012600020F00040C20DC0F3160040F400007F2AB9
:1012700007DA7D2A00DA7D22763A00FA02F10020B0
:1012800008E0962A09DCA2F1760100FA01F1C2F128
:101290009602D040FFF700FF01E0963A9040002C04
:1012A00000D0404210BD002070470000064C074DA2
:1012B00006E0E06840F0010394E807009847103426
:1012C000AC42F6D3FEF716FF688400088884000855
:1012D000C0B24FF4F05100F0C1B900002DE9F34F56
:1012E0008BB04FF0000801F10C000C464FF0010BE1
:1012F00046460DF1080A0190626901210198904764
:10130000051E2DD0252D2CD0216A8847C0B16269D9
:10131000012101989047216A88470028F7D1411E92
:1013200062690198904700E0761CA1690B98884794
:10133000216A88470028F7D1E1690B988847DBE7E5
:10134000A1690B9888470746A84201D1761CD3E7CC
:10135000E1690B9888477F1C02D1B8F1000F6FD06C
:1013600047E1002762693D463946019890472A289F
:1013700004D162690121019890470125DFF8889224
:101380006269012101989047A0F130010A290AD22F
:101390004F45E5DC07EB870100EB4107303FDFD429
:1013A00045F01005ECE7E90601D46FF000476C2822
:1013B0000AD04C2814D0682815D06A280DD074287B
:1013C0001CD07A281AD01DE062690121019890474B
:1013D0006C2802D045F0040514E045F002050DE04C
:1013E00045F020050AE062690121019890476828CC
:1013F00002D045F0080505E045F400656269012169
:1014000001989047C4E9015765283DD019DC582858
:101410007AD00CDC452837D004DC252826D041289A
:1014200031D131E046282FD047282CD12CE05B2841
:1014300077D0612828D063287CD0642823D15AE053
:10144000D1E06F2848D008DC66281DD067281BD063
:10145000692821D06E2816D127E0702845D073283E
:1014600068D0752847D078280DD14DE0A1690B9838
:101470008847054625283FF469AFE1690B988847FE
:101480006D1C3FF46AAFB4E023466A466FF001007A
:101490000B99FFF7B1FC9FE045F040006060A807A2
:1014A00023464FF0000236D43EE0E8077FF447AF12
:1014B0002068011D21600068290501D506701BE721
:1014C000290701D5068017E7A90703D5F117C0E959
:1014D000006111E706600FE745F040006060A80773
:1014E00023464FF0080216D41EE040F60E0125EA0E
:1014F0000100606016E045F040006060A8072346E8
:101500004FF00A0207D40FE045F040006060A807E2
:1015100008D5234610226FF001000B99FFF7BDFAA2
:101520005AE007E0234610226FF001000B99FEF706
:1015300083FE51E04FF000094F464B46632802D02E
:101540005B2807D041E02079C00601D40120A060CB
:1015500001273AE062690121019890475E2805D190
:101560004FF001096269494601989047216939B9EC
:1015700000210A46534643F82120491C0829FADB7A
:10158000B0B3216969B9C11700EBD16253110AEBFD
:10159000830122F01F02821A01200B68904003434E
:1015A0000B6062690121019890475D28E8D1B9F18B
:1015B000000F09D00020514651F82020D24341F8B5
:1015C0002020401C0828F7DB02AB224600976FF072
:1015D00001000B99FFF70CFB00280CDA401C08D126
:1015E000BBF1000F05D04FF0FF300DB0BDE8F08F1C
:1015F000FFE74046F9E7E90701D108F10108064491
:101600004FF0000B78E60000CCCCCC0C0EB540F2CD
:10161000334202920022CDE900221346FFF7CFFDAC
:1016200003B000BD01F0004330B421F0004150EAA6
:10163000010206D00A0DA2F56072C1F31301002A5F
:1016400002DC30BC00207047440F44EAC104C100F2
:10165000E01830BC00EBC250FFF71EBD7F2801D957
:10166000002208E0064A02EB5002C007127800D1BF
:10167000120902F00F02012090400840704700005C
:1016800028840008FEE7704770B504462E4884425F
:1016900009D120212D4800F055FC0028207844D0A5
:1016A00020F0020020702848294D2030844209D1C2
:1016B000A915284600F046FC0028207838D020F0F4
:1016C000020020702048403084420AD14FF400715B
:1016D000284600F037FC002820782CD020F00200AB
:1016E000207019481B4D6030844209D16914284686
:1016F00000F028FC0028207820D020F00200207084
:101700001148803084420AD14FF48041284600F0CD
:1017100019FC0028207814D020F0020020702078D6
:10172000410861F30000207070BD40F00200B9E78D
:1017300040F00200C5E740F00200D1E740F00200AF
:10174000DDE740F00200E9E7B009002000080140B1
:10175000000C01400010014070B5134A01211170C6
:101760001249097800291ED1124C114B0022B4F9FC
:10177000005000BF33F91260AE4200D11146521C36
:10178000D2B20E2AF6D30C4A904203D10D2901D2CF
:10179000491CC9B2094A904202D109B1491EC9B2D5
:1017A00033F81100208070BD2800002010000020B8
:1017B0004200002040000020100A0020300A0020D3
:1017C000064A1170002101750161516819B19168D3
:1017D0000861906070475060FBE70000180000202F
:1017E000704770477047000070B5017F01290DD127
:1017F00010490123104E0B7010490024104D0A7837
:10180000B0420AD11AB1012A00D10C7070BD0B7020
:101810000C4A2C700321117001E0012AF6D10A490B
:101820008842F3D1287808B12C7070BD0748037046
:1018300070BD000027000020D0090020100000200B
:101840005F00002060000020300A00205E000020C1
:101850002DE9F0413A4E642700254FF002087468E4
:101860006AE02046FFF710FF2078810705D4217D2C
:10187000032901D16168A1616560C0F3400108429C
:1018800003D03278616811446160217D042907D05A
:10189000A56005294FD2DFE801F0080E1B2E3F009E
:1018A0003378A2681A44A260F3E72577800742D50F
:1018B000012020753FE0800701D425753BE060687A
:1018C000142838D984F814802046FFF789FF32E0C5
:1018D000800705D404202075207F401C20772AE053
:1018E0006068B0F5487F26D903202075A78120467F
:1018F000FFF7C9FE1FE0A08918B13178401AA08116
:1019000003E0A7812046FFF727FF2078800712D445
:101910002046FFF767FF05E0A068C82806D92046E3
:10192000FFF762FF2046FFF75CFFC6E760681428F8
:1019300001D984F814802469002C92D1BDE8F0818B
:1019400018000020014800F0EBB8000084020020DD
:10195000014800F0E5B8000040020020014800F016
:10196000DFB800005803002030B590F84050012443
:10197000AC40C56B6C60046863604368102B0368FF
:1019800003D099600068C26030BD9A600068C16091
:1019900030BD704772B6FEE7FEB52148214C0346C4
:1019A00007785E795A789978D8781F4D1B792A2F55
:1019B00014D02B2F23D02C2F0FD13E2E0DD18DE8FC
:1019C0000700174819A20921323004F045FF1448D6
:1019D000323004F09BFA20612861FEBD3E2EFCD11E
:1019E0008DE807000E4811A20921323004F034FFBF
:1019F0000B48323004F08AFAA060A860FEBD3E2E8B
:101A0000FCD18DE80700064808A20921323004F015
:101A100023FF0348323004F079FAE060E860FEBD4D
:101A2000500A0020981100207011002025303258F3
:101A30002530325825303258253032580000000009
:101A400010B590F821100022022905D004218163ED
:101A500080F82020012010BD01680B6823F00E03E0
:101A60000B6001680B6823F001030B6090F84030B5
:101A7000C46B012101FA03F3636080F8211080F840
:101A80002020104610BD000010B590F82110002451
:101A9000022903D00421816301243DE001680A6822
:101AA00022F00E020A6001680A6822F001020A6050
:101AB0001A4A0168914201D1012121E0174A1432EA
:101AC000914201D110211BE0144A2832914201D1E8
:101AD000891515E0114A3C32914201D189140FE079
:101AE0000E4A5032914202D14FF4803108E00B4A45
:101AF0006432914202D14FF4801101E04FF08071C5
:101B0000064A083A5160012180F82110002180F82E
:101B10002010416B01B18847204610BD08000240EB
:101B20002DE9F05FC16B0C6801680B68D0F840C00C
:101B3000042202FA0CF2494DDFF824A1494E4A4F23
:101B4000DFF828B1DFF828E122422CD05A072AD545
:101B50000A68920603D40A6822F004020A60016847
:101B6000A94201D1042219E0514501D1402215E0DA
:101B7000B14202D14FF4806210E0B94202D14FF479
:101B800080420BE0594502D14FF4802206E07145B6
:101B900002D14FF4800201E04FF080622F490839F2
:101BA0004A60C16A3BE04FF0020808FA0CF818EAF4
:101BB000040F4FF000094FF0010235D05FEA83783F
:101BC00032D50B689B0605D40B6823F00A030B6023
:101BD00080F821200168A94201D1022219E0514573
:101BE00001D1202215E0B14202D14FF4007210E081
:101BF000B94202D14FF400520BE0594502D14FF4E3
:101C0000003206E0714502D14FF4001201E04FF0BE
:101C10000072124908394A6080F82090816A0029D0
:101C20001AD0BDE8F05F0847082505FA0CF52542F3
:101C300012D01B0710D50B6823F00E030B6090F831
:101C40004010C36B02FA01F15960826380F82120D1
:101C500080F82090016BE2E7BDE8F09F08000240A9
:101C60001C00024030000240440002405800024084
:101C70006C00024030B528B308C813491422194437
:101C8000B1FBF2F18900C163104981630221417700
:101C90001A6843F6F0718A43D0E900142143D0E971
:101CA00002452C432143046921434469214384694B
:101CB00021431143196000214163012242770177DA
:101CC000084630BD012030BDF8FFFDBF00000240D6
:101CD00070B5044690F82000002501280CD00120A2
:101CE00084F8200094F821600020012E06D084F8AA
:101CF00020000225284670BD022070BD022684F80F
:101D00002160A0632068066826F001060660204670
:101D1000FFF72AFEE06A00282068016802D041F03F
:101D20000E0106E021F0040101602068016841F025
:101D30000A0101602068016841F001010160D9E7F2
:101D400070B5044600F010F90546601C02D0044846
:101D50000078044400F008F9401BA042FAD370BD9B
:101D6000000000202DE9F84FDFF8B8910024A9F118
:101D7000040B23460F2709F1040AABF1040EC9E056
:101D80000125A5402A40AA427DD1674ED1F804C062
:101D9000ACEB0608B44532D014DCBCF1030F3AD0EA
:101DA00009DCBCF1000F2AD0BCF1010F1CD0BCF142
:101DB000020F31D11DE0BCF1110F17D0BCF1120F91
:101DC0002AD119E0B8F5881F19D006DCB8F5803F94
:101DD00015D0B8F5801F1FD111E0B8F5001F0ED047
:101DE000B8F5041F18D10AE0CB6815E0CB681B1DBD
:101DF00012E0CB6808330FE0CB680C330CE08B6843
:101E00002BB1012B4FF0080303D0456104E00423FC
:101E100002E0056100E00023FF2A01D8064601E048
:101E200000F104064FEA840501D9A5F12005D6F892
:101E3000008007FA05FC28EA0C0803FA05F548EAD1
:101E40000508C6F800804D68ED0062D5374DAE69D3
:101E500046F00106AE61AD6924F0030605F0010508
:101E60000095334D06EB050CDCF80850A607360F3D
:101E700007FA06F825EA0805DFF8B880404503D1DF
:101E80004FF0000817E044E0DFF8AC80404502D195
:101E90004FF001080FE0DFF8A480404502D14FF079
:101EA000020808E0DFF89880404502D14FF00308AF
:101EB00001E04FF0040808FA06F848EA0508CCF8F3
:101EC00008804D68D9F80060ED024D4601D51643F3
:101ED00000E096432E604D68DAF80060AD0255468A
:101EE00001D5164300E096432E604D68DBF8006094
:101EF000AD035D4601D5164300E096432E604D6864
:101F0000DEF80060ED03754601D5164300E0964308
:101F10002E60641C0D682A46E5407FF431AFBDE8B1
:101F2000F88F00000804014000001110001002406A
:101F30000000014000080140000C01400010014079
:101F4000001401408068084000D001207047C2683A
:101F500021EA02030A4043EA0241016170470AB1E3
:101F6000016170470904FBE7014880687047000081
:101F70000000002070B5040025D094F83D00002535
:101F800020B984F83C50204600F0B8F8242084F8AA
:101F90003D002068016821F00101016020680168AE
:101FA00041F4004101602068016821F400410160B2
:101FB00000F022FA4D4A6168914201D84C4900E094
:101FC0004C49884201D2012070BD4B492368B0FBC7
:101FD000F1F15E6826F03F060E435E60636893424F
:101FE00006D94FF4967359434FF47A73B1FBF3F16A
:101FF0002368491C1E6A26F03F0631431962616856
:10200000914210D84900401EB0FBF1F2521CC2F3BD
:102010000B02042A01D2042022E0B0FBF1F0401CA4
:10202000C0F30B001CE0A268F2B301EBC10303EBA9
:102030000116431EB3FBF6F35B1C43F480431B0500
:1020400049D092B301EBC10202EB0111401EB0FB7B
:10205000F1F0401CC0F30B0040F4804040F400401D
:102060002168CA694CF6FF739A431043C861D4E9EA
:10207000071001432068026822F0C002114301608A
:10208000D4E9030101432068826848F2FF339A4390
:1020900011438160D4E9050108432168CA6822F030
:1020A000FF021043C86001E00EE016E020680168FE
:1020B00041F0010101602564202084F83D00256382
:1020C00084F83E50002070BD01EB4106431EB3FB77
:1020D000F6F35B1CB3E70120C2E701EB4101401EB0
:1020E000B0FBF1F0401CC0F30B00B7E7A086010085
:1020F00080841E0000093D0040420F0030B585B0CD
:10210000002100910191029103911E4D03681E4C24
:10211000122103221D48AB4216D1A36943F00803E4
:10212000A361A369039203F008030493C023CDE9DC
:1021300000316946FFF716FEE06940F40010E061E7
:10214000E06900F4001019E0114DAB4217D1A3690A
:1021500043F00803A361A369039203F00803049307
:102160004FF44063CDE900316946FFF7FBFDE069BC
:1021700040F48000E061E06900F48000049005B064
:1021800030BD00000054004000100240000C01402F
:10219000005800400248816802781144816070470D
:1021A00000000020074810B5016841F010010160EF
:1021B000032000F079F8032000F006F800F024F87E
:1021C000002010BD0020024070B50D4D04464FF4B4
:1021D0007A712878B1FBF0F00A490968B1FBF0F098
:1021E00000F02BFC48B9102C07D200222146501ECB
:1021F00000F03AF800206C6070BD012070BD000056
:10220000000000200C0000200E4808B5816941F054
:1022100001018161816901F001010091C16941F011
:102220008051C161C06900F080500090052000F02D
:102230003BF80548416821F0E06141F000714160E0
:1022400008BD00000010024000000140002809DB2A
:1022500000F01F02012191404009800000F1E020C0
:10226000C0F8001170470000F0B40E4B1B680C461C
:10227000C3F30223C3F10705042D00D90425191D5A
:10228000072901D2002300E0DB1E012606FA05F132
:10229000491E214099409E40761E16403143F0BCB5
:1022A00002F0DABC0CED00E0064900F00702086815
:1022B0004FF6FF03184040EA0220034A104308602B
:1022C000704700000CED00E00000FA052DE9F04732
:1022D0000F46050061D0434E306800F00700B84259
:1022E00009D2306820F0070038433060306800F0D1
:1022F0000700B84251D128683B4C810712D54007EE
:1023000003D5606840F4E06060602878000703D57A
:10231000606840F4605060606068A96820F0F00078
:10232000084360602878C00728D06868012810D06A
:102330002168022810D0890700292EDA616821F06F
:10234000030101436160FFF70FFE804641F28839C7
:102350000DE021688903EFE78901EDE7FFF704FE4F
:10236000A0EB0801494502D90320BDE8F087606869
:10237000696800F00C00B0EB810FEFD1306800F01D
:102380000700B8420BD9306820F0070038433060AE
:10239000306800F00700B84201D00120E5E7287856
:1023A000400705D56068E96820F4E0600843606094
:1023B0002878000706D56068296920F4605040EA53
:1023C000C100606000F038F86168084AC1F3031189
:1023D000515CC8400649086006480068FFF7F4FEF3
:1023E0000020C2E70020024000100240527900089D
:1023F0000C000020040000200448054900684968DA
:10240000044AC1F30221515CC84070470C0000200F
:1024100000100240627900080448054900684968D4
:10242000044AC1F3C221515CC84070470C0000202F
:1024300000100240627900080E4A51680E4801F00F
:102440000C03042B11D0082B0FD10C48C1F383438C
:10245000C903C05C0AD55168084AC1F34041921EC5
:10246000515C054A5043B0FBF1F0704704494843C2
:10247000704700000010024000127A004279000804
:1024800000093D002DE9F84F040070D02078C04DC0
:10249000C00749D06868C0F38100012807D0686888
:1024A000C0F38100022809D16868C00306D52868F6
:1024B000800339D560680028E7D035E06068B0F562
:1024C000803F0BD010B1B0F5A02F11D0286820F4B8
:1024D00080302860286820F4802002E0286840F4DA
:1024E00080302860606890B1FFF73EFD06460AE044
:1024F000286840F480202860F0E700BFFFF734FD33
:10250000801B642873D828688003F7D50CE0FFF798
:102510002BFD064605E000BFFFF726FD801B642863
:10252000F0D828688003F7D420789A4E80074FF0BF
:1025300001094FF0000839D5686810F00C0F07D07A
:102540006868C0F38100022809D16868C00306D416
:102550002868800714D52069012808D110E0206977
:10256000B0B1C6F80090FFF7FFFC074605E00AE1AE
:10257000FFF7FAFCC01B0228C4D828688007F7D5EB
:102580002868616920F0F80040EAC10028600DE089
:10259000C6F80080FFF7E8FC074604E0FFF7E4FC1C
:1025A000C01B022823D828688007F7D420780007AA
:1025B0002CD57948A169D9B1C0F80090FFF7D4FCB7
:1025C000074604E0FFF7D0FCC01B02280FD8686A5A
:1025D0008007F7D571484FF4FA510068B0FBF1F06D
:1025E000009000BF0098411E0091FAD20EE080E0FA
:1025F000C0F80080FFF7B8FC074604E0FFF7B4FC22
:10260000C01B022875D8686A8007F7D42078400775
:1026100060D5E8690027C00008D4E86940F0805020
:10262000E861E869012700F0805000905C4801688B
:10263000C90513D40168834641F480710160FFF736
:1026400093FC824606E000BFFFF78EFCA0EB0A0079
:1026500064284ED8DBF80000C005F5D5E0680128F5
:102660000AD008B1052813D0286A20F0010028629A
:10267000286A20F0040002E0286A40F00100286285
:10268000E06841F2883B98B1FFF76EFC82460BE0B0
:10269000286A40F004002862EEE700BFFFF764FC00
:1026A000A0EB0A0159455AD8286A8007F6D50CE0F4
:1026B000FFF75AFC824605E0FFF756FCA0EB0A0143
:1026C00059454CD8286A8007F6D41FB1E86920F034
:1026D0008050E861E06988B36968C1F3810102292B
:1026E00044D00228C6F8608004D0FFF73DFC0446C1
:1026F00038E034E0FFF738FC074604E0FFF734FC2D
:10270000C01B02282BD828688001F7D4206AB0F5B6
:10271000803F05D16868A16820F4003008436860F4
:10272000D4E908010843696821F47411084368601A
:10273000C6F86090FFF718FC044606E025E000BFED
:10274000FFF712FC001B022809D828688001F7D582
:102750001BE000BFFFF708FC001B022802D9032082
:10276000BDE8F88F28688001F4D40EE00128F7D086
:102770006868226A00F48031914204D1616A00F4F1
:102780007010884201D00120EAE70020E8E700004D
:102790000010024000004242800442420C0000202F
:1027A0000070004070B5040009D0606A002540B197
:1027B00025616561A56294F8510040B10CE00120EB
:1027C00070BD6068B0F5827FF4D0E561F2E784F80F
:1027D0005050204600F040F8022084F85100206854
:1027E000016821F040010160A088218900F4827015
:1027F00001F404410843A18901F400610843217CEC
:1028000001F002010843217D01F001010843218B01
:1028100001F400710843217F01F03801084394F866
:10282000201001F080010843218D01F4005108437C
:1028300021680860A069042101EA1040216848600D
:102840002068C16921F40061C1616565012084F8D7
:102850005100002070BD000030B585B00024009408
:1028600001940294039400681549884225D11548C3
:10287000C16941F48041C161C16901F480410491A1
:10288000816941F00801816180690F4D00F0080005
:1028900004904FF420400090022001900320039008
:1028A00069462846FFF75EFA4FF48040CDE9000400
:1028B000694628460294FFF755FA05B030BD00007E
:1028C0000038004000100240000C01402DE9F84F94
:1028D000044690F850000026984615468A4601287E
:1028E0000CD0012784F85070FFF73EFB814694F826
:1028F0005100B346012804D002269AE00220BDE828
:10290000F88FBAF1000F6FD0002D6DD0032084F83E
:102910005100C4F854B0C4F830A0A586E586C4F8C8
:1029200038B0A4F83CB0A4F83EB0C4F844B0C4F841
:1029300040B0A068B0F5004F09D12068016821F0CF
:10294000400101602068016841F480410160206815
:102950000168490603D4016841F040010160E06864
:10296000B0F5006F606803D058B3012D29D049E05D
:1029700008B1012D1FD1206B21680088C86006E0D6
:1029800020688168890709D5216B0988C160206B9F
:10299000801C2063E08E401EE0860CE0FFF7E4FA26
:1029A000A0EB0901414503D3B8F1FF3F03D006E096
:1029B000B8F1000F03D0E08E0028E1D125E0032616
:1029C00035E0206B21680078087306E02068816894
:1029D00089070AD5216B09780173206B401C20639D
:1029E000E08E401EE0860DE01FE0FFF7BDFAA0EB91
:1029F0000901414503D3B8F1FF3F03D0DFE7B8F148
:102A0000000FDCD0E08E0028E0D14A464146204647
:102A100001F018FA08B120206065A06818B9206894
:102A2000C16880680090606D08B1012601E084F8FB
:102A3000517084F850B0304661E710B5401EB0F1D7
:102A4000807F01D3012010BD4FF0E02460610F2191
:102A5000601702F001F90020A0610720206100202A
:102A600010BD70477047000070B590F83C20012AF7
:102A700026D0012480F83C40022280F83D200368E3
:102A80005A689D6822F070060A6832435A600D4BFE
:102A900002689A4208D0B2F1804F05D00A4B9A42A0
:102AA00002D00A4B9A4204D1496825F080031943A9
:102AB000916080F83D40002180F83C10084670BDD0
:102AC000022070BD002C01400004004000080040BE
:102AD00010B5040003D094F83D0010B107E00120C8
:102AE00010BD002084F83C00204600F01FF80220B2
:102AF00084F83D00211D206801F0D8FC012084F8F5
:102B0000460084F83E0084F83F0084F8400084F8D2
:102B1000410084F8420084F8430084F8440084F8BB
:102B2000450084F83D00002010BD000008B5006895
:102B30000B49884212D10B48816941F400618161DF
:102B40008069002200F40060009011461920FFF710
:102B50008BFBBDE808401920FFF778BB08BD0000DB
:102B6000002C01400010024090F83D10012901D0D6
:102B700001207047022180F83D100168CA6842F0C8
:102B80000102CA6000680B49884208D0B0F1804F4A
:102B900005D00949884202D00849884204D1816899
:102BA00001F00701062903D0016841F0010101602D
:102BB00000207047002C0140000400400008004045
:102BC00070B5044690F83C000025012817D0012676
:102BD00084F83C60022084F83D002068826822F07E
:102BE000770222F47F4282600868502838D00DDCDA
:102BF00020284FD005DC90B3102811D14AE00220E4
:102C000070BD302846D040280AD13BE060282FD044
:102C100070280DD0B0F5805F03D0B0F5005F12D002
:102C2000012584F83D60002084F83C00284670BDF2
:102C3000CB68D1E90121206801F0F0FC20688168AF
:102C400041F0770109E0CB68D1E90121206801F06A
:102C5000E5FC2068816841F480418160E1E719E08A
:102C6000CA684968206801F08DFD5021206806E09F
:102C7000CA684968206801F096FD6021206801F06B
:102C8000D7FCCEE7CA684968206801F07BFD402187
:102C90002068F4E7226801461046F0E77047704765
:102CA00070B50446006801694FF00005C943890703
:102CB00015D4C168C943890711D4E91E01610120F7
:102CC0002077206880698007204602D0FFF7E7FF61
:102CD00004E000F0D3F8204600F0BAF92577206828
:102CE0000169C943490717D4C168C943490713D4C7
:102CF0006FF004010161022020772068806910F4E0
:102D0000407F204602D0FFF7CAFF04E000F0B6F88B
:102D1000204600F09DF9257720680169C94309071D
:102D200016D4C168C943090712D46FF008010161C4
:102D3000042020772068C0698007204602D0FFF772
:102D4000AEFF04E000F09AF8204600F081F9257704
:102D500020680169C943C90617D4C168C943C906B7
:102D600013D46FF010010161082020772068C0693A
:102D700010F4407F204602D0FFF791FF04E000F0FE
:102D80007DF8204600F064F9257720680169C94381
:102D9000C90708D1C168C943C90704D1891E0161A7
:102DA000204600F0B1FA20680169C943090609D438
:102DB000C168C943090605D46FF08001016120464E
:102DC000FFF74FFE20680169C943490609D4C1686D
:102DD000C943490605D46FF040010161204600F067
:102DE0009DFA20680169C94389060BD4C168C943AB
:102DF000890607D46FF0200101612046BDE87040CC
:102E0000FFF730BE70BD000000B585B00021009115
:102E1000019102910391026814480221B2F1804F9E
:102E200014D0134B9A420FD1826942F0080282619A
:102E30008069009100F008000191CDE903100D4870
:102E4000694600BFFEF78EFF05B000BD826942F003
:102E5000040282618069039100F004000490012063
:102E6000CDE9000169460448ECE70000001002408B
:102E700000040040000C014000080140704770B59C
:102E8000044690F83C0000260D4601280FD0012092
:102E900084F83C006AB1042A1DD0082A2FD00C2ADD
:102EA0003FD00126002084F83C00304670BD02204F
:102EB00070BD206801F0C4FB2068816941F0080101
:102EC00081612068816921F0040181612068816944
:102ED0002A69114311E0206801F0DAFB206881695A
:102EE00041F4006181612068816921F48061816120
:102EF000206881692A6941EA02218161D2E720685C
:102F000001F0F2FB2068C16941F00801C16120684D
:102F1000C16921F00401C1612068C1692A691143B6
:102F200011E0206801F00CFC2068C16941F40061E7
:102F3000C1612068C16921F48061C1612068C169F3
:102F40002A6941EA0221C161ACE710B5040003D04F
:102F500094F83D0010B107E0012010BD002084F876
:102F60003C00204600F01EF8022084F83D00211DA0
:102F7000206801F09BFA012084F8460084F83E00A6
:102F800084F83F0084F8400084F8410084F842004F
:102F900084F8430084F8440084F8450084F83D0038
:102FA000002010BDF8B510210546D0F800C0002063
:102FB000234C80220B018E014F02BCF1804F21D0A7
:102FC000DFF880E0F4451CD1D4F81CC04CF0020CB2
:102FD000C4F81CC0E469DFF870C004F00204009477
:102FE0001A4C4DC464E806071848C4E900C1083803
:102FF000FEF740FE08B1FEF7CDFC2C6365622C6243
:103000006562F8BDD4F81CC04CF0010CC4F81CC0BB
:10301000E469DFF834C004F0010400940B4C0CF1B7
:10302000280C443C4DC464E806070848C4E900C1C4
:103030004C38FEF71FFE08B1FEF7ACFC6C62DFE710
:103040000010024000040040300002408C020020CA
:1030500070B5124C0125226882420BD1104661687E
:1030600000F0F0F894F84403032801D00C480EE077
:103070000A480FE00B4C2268824209D11046616871
:1030800000F0E0F894F84403032802D006480570E5
:1030900070BD0448BDE8704001F0C4B9C00A00200A
:1030A00036000020180E0020370000207047000076
:1030B0002DE9F04117460D0004464FF000060CD0F4
:1030C000042D11D0082D16D094F84100022819D0F3
:1030D00094F84100012818D07CE094F83E000228C2
:1030E00010D094F83E00F5E794F83F00022809D08C
:1030F00094F83F00EEE794F84000022802D094F8DC
:103100004000E7E70220BDE8F081002F62D0002BED
:1031100060D04649464ADFF81CC102204DB1042D5B
:1031200018D0082D27D084F841000C2D44D001265A
:1031300079E084F83E00606A8162606A3946C26262
:10314000606AC0F830C02268606A2832FEF7C0FDAD
:1031500088BB21E084F83F00A06A8162A06A3946FA
:10316000C262A06AC0F830C02268A06A3832FEF796
:10317000AFFD00BB15E084F84000E06A8162E06AC0
:103180003946C262E06AC0F830C02268E06A3C3268
:10319000FEF79EFD78B909E02068C16841F400712E
:1031A0001EE02068C16841F4806119E02068C168B0
:1031B00041F4006114E00DE0206B8162206B394620
:1031C000C262206BC0F830C02268206B2832FEF744
:1031D0007FFD08B1012096E72068C16841F4805165
:1031E000C16001222946206801F096F91249206841
:1031F000884203D1426C42F4004242642068884213
:1032000008D0B0F1804F05D00C49884202D00C495B
:10321000884204D1816801F00701062903D00168C2
:1032200041F00101016030466DE7000033450008C0
:1032300091450008C9450008002C014000040040E9
:103240000008004070B50D0004464FF0000607D09E
:10325000042D0CD0082D11D00C2D16D0012645E0E0
:103260002068C16821F40071C160606A13E02068C1
:10327000C16821F48061C160A06A0CE02068C16867
:1032800021F40061C160E06A05E02068C16821F4B2
:103290008051C160206BFEF7F7FB002229462068B1
:1032A00001F03AF9174B41F2111120688A10984247
:1032B00009D1036A0B4206D1036A134203D1436C5E
:1032C00023F4004343642068036A0B4206D1016A79
:1032D000114203D1016821F00101016001203DB1DB
:1032E000042D08D0082D09D084F84100304670BD67
:1032F00084F83E00FAE784F83F00F7E784F84000DE
:10330000F4E70000002C014000680349884201D125
:1033100003F024BB70470000002C0140704738B513
:10332000044690F84200202801D0022038BD61B147
:103330005AB10120206300206063204601F0B6FBF3
:103340000028F3D1216B012901D0012038BD21686B
:103350000A684968009121680C3151E8002F42F059
:10336000100241E80023002BF5D138BD0A4910B501
:10337000884210D104F044FA32210848FCF71CFFBF
:10338000322206490448FFF7CAFF05480068016871
:1033900021F00401016010BD100300208B0A002001
:1033A0005803002070470000F8B50168044608681B
:1033B000CA684B6910F00F0F4FF0000559D003F0A9
:1033C000010602F49077374365D0C10705D0D105D7
:1033D00003D5616C41F001016164410705D5D9074E
:1033E00003D0616C41F002016164810705D5D90702
:1033F00003D0616C41F004016164010707D502F05C
:103400002001314303D0616C41F008016164616CBB
:1034100000293AD0800604D5900602D5204601F056
:1034200088FA20684069616CC0F38010090700D4F5
:1034300060B3204601F048FA20684069400621D573
:103440002068143050E8001F21F0400140E80012CD
:10345000002AF5D1E06BA8B16D494163E06BFEF73E
:1034600013FB002811D0E06B416B01B0BDE8F040C8
:10347000084783060FD593060DD52046BDE8F840D2
:1034800001F057BA2046FFF78DFFF8BD2046FFF741
:1034900089FF6564F8BD266B2023012E7CD1C6060A
:1034A0007AD5D60678D508684868009048694FF004
:1034B0000206400640D5E16B086840680004000C35
:1034C000E8D0A28D8242E5D9E085886920282DD0F8
:1034D00020680C3050E8001F21F4807140E8001291
:1034E000002AF5D12068143050E8001F21F00101B6
:1034F00040E80012002AF5D12068143050E8001F7F
:1035000021F0400140E80012002AF5D184F8423051
:10351000256320680C3050E8001F21F0100140E8BE
:103520000012002AF5D1E06BFEF78AFA6663A08DDF
:10353000E18D401A81B22AE0A08DE18D401A81B25E
:10354000E08D0028A6D00029A4D022680C3252E8D1
:10355000000F20F4907042E80007002FF5D120689A
:10356000143050E8002F22F0010240E80027002F1D
:10357000F5D184F84230256320680C3050E8002FE4
:1035800022F0100240E80023002BF5D166632046AC
:10359000FFF7ECFEF8BDFFE705062BD5150629D58C
:1035A00094F841002128F5D1A068B0F5805F01D1E1
:1035B0002069B0B1206A411C21622168007848600E
:1035C000E08C401E0004000CE084E3D12068C16858
:1035D00021F08001C1602068C16841F04001C160F4
:1035E000D8E7206A0088C0F308004860206A801C81
:1035F0002062E5E74006CDD55006CBD5CA68204607
:1036000022F04002CA6084F8413000F035F9C1E789
:10361000CB47000870B5040004D094F841000025A1
:1036200010B106E0012070BD84F84050204600F043
:1036300023F8242084F841002068C16821F4005157
:10364000C160204601F0D6F92068016921F490415B
:1036500001612068416921F02A0141612068C16847
:1036600041F40051C1606564202084F8410084F871
:1036700042006563002070BDF0B585B00024009461
:103680000194029403940646374F03683749022297
:103690000320374DBB4226D18B6943F480438B61B5
:1036A0008B6903F4804304938B6943F004038B61BB
:1036B0008969039001F0040104911102CDE900121F
:1036C00069462846FEF74EFB2815CDE900046946F9
:1036D00028460294FEF746FB002211462520FEF7FD
:1036E000C3FD25203BE0234FBB423AD1CB6943F4D5
:1036F0000033CB61CB6903F4003304938B6943F04F
:1037000004038B618969039001F004010491042191
:10371000CDE9001269462846FEF724FB0820CDE9D2
:103720000004694628460294FEF71CFB134D12481C
:10373000C5E900048020C5E902402C616C61AC61E0
:103740002846EC61FEF796FA08B1FEF723F9F56317
:103750000022114626206E62FEF786FD2620FEF727
:1037600075FD05B0F0BD00000038014000100240BA
:1037700000080140004400406C0002405803002053
:1037800090F84230202B01D00220704721B11AB1AD
:103790000023036301F0D2B9012070470A49006891
:1037A000096888420FD109480A49094B027808780C
:1037B0001A54401C08700849012002460870034949
:1037C0000148FFF7DDBF7047C80200202500002038
:1037D000500A0020340000203200002070472DE9FC
:1037E000F843044690F841001F4616460D4620282F
:1037F00002D00220BDE8F8837DB176B1002060647C
:10380000212084F84100FEF7AFFBA6848046E684C1
:10381000A068B0F5805F02D003E00120EAE72069EC
:1038200010B12E4600250EE000260CE08021204637
:1038300001F09FF9A0B9AEB116F8010B21684860FC
:10384000E08C401EE084E08C43464FF0000200977D
:103850000028EBD14FF04001204601F08AF930B149
:103860000320C7E735F8020BC0F30800E6E7202085
:1038700084F841000020BDE77047FEE72DE9F041E4
:103880000446D4E90001FCF7CFFD064660613146ED
:10389000206AFCF777FD206205463046A169FCF7F7
:1038A000C3FD2169FCF7C6FD07462946E068FCF721
:1038B000C1FD80463146A068FCF7BCFD4146FCF7DF
:1038C00061FD3946FCF75EFD08496062884202DC12
:1038D0000749884200D961620648A661854202DC38
:1038E0000548854200D92062BDE8F0810000C04053
:1038F0000000C0C00000C8420000C8C2083080E814
:103900000E00704701607047114808B5416941F0E9
:10391000010141614069002200F001000090114660
:103920000D20FEF7A1FC0D20FEF790FC00221146B1
:103930000F20FEF799FC0F20FEF788FC00221146AD
:103940001020FEF791FCBDE808401020FEF77EBC79
:10395000001002402DE9F04186B000243A4800945E
:10396000019402940394816941F01001816181699D
:1039700001F010010491816941F0200181618169A8
:1039800001F020010491816941F0040181618169A4
:1039900001F004010491816941F0080181618069AD
:1039A0002A4F00F008000490002249F69211384690
:1039B000FEF7D5FADFF89880002241F20801404670
:1039C000FEF7CDFA4FF4C04001258DE8310069467D
:1039D0002048FEF7C7F9822002268DE8610069467B
:1039E00038460396FEF7BEF949F61010CDE90005FA
:1039F000CDE9024669463846FEF7B4F920208DE845
:103A0000310069463846FEF7ADF940F201308DE8E5
:103A1000310069464046FEF7A5F92803CDE90005C7
:103A20000320CDE9024069464046FEF79BF9082095
:103A3000CDE90005CDE9024669464046FEF792F918
:103A400006B0BDE8F081000000100240000801400F
:103A5000000C0140001001400D4810B50B490160F9
:103A60000C49416000214FF480428160C0E903129B
:103A700041618161C1610162FEF77CFA002803D0D7
:103A8000BDE81040FDF786BF10BD000000540040A7
:103A900068000020A08601000D4810B50B490160A8
:103AA0000C49416000214FF480428160C0E903125B
:103AB00041618161C1610162FEF75CFA002803D0B7
:103AC000BDE81040FDF766BF10BD00000058004083
:103AD000BC000020A0860100104810B50E4901600E
:103AE0004FF48271416000218160C1604FF4007227
:103AF0000161C0E905121822C0E907214162816213
:103B00000A21C162FEF74EFE002803D0BDE8104036
:103B1000FDF740BF10BD000000380040100100203C
:103B200010B586B0002418480094019402940394C0
:103B300004941449059401604721C0E9011440F23E
:103B4000E731C0E903148021C0E90541FEF7C0FF59
:103B500008B1FDF71FFF4FF48050009069460A48F6
:103B6000FFF72EF808B1FDF715FF049404A90648E5
:103B70000594FEF779FF002801D0FDF70BFF06B092
:103B800010BD0000002C01406801002010B58AB073
:103B9000002407941C2168460894FCF70DFB164886
:103BA0004FF0804101604721C0E9011440F2E73144
:103BB000C0E903148461FFF7C8F908B1FDF7EAFE14
:103BC000079407A90C480894FEF74EFF08B1FDF7CB
:103BD000E1FE6020CDE90004029400226946064817
:103BE0000494FFF74CF908B1FDF7D4FE0248FFF743
:103BF0000BF90AB010BD0000B001002010B58AB06A
:103C0000002407941C2168460894FCF7D5FA16484E
:103C1000144901604721C0E9011440F2E731C0E9CD
:103C200003148461FFF791F908B1FDF7B3FE07941F
:103C300007A90D480894FEF717FF08B1FDF7AAFE83
:103C40006020CDE9000402940C22694606480494E1
:103C5000FFF715F908B1FDF79DFE0348FFF7D4F80B
:103C60000AB010BD00040040F80100200C4810B557
:103C70000A4901604FF416514160002181600C2215
:103C8000C160C0E904128161C161FFF7C3FC002873
:103C900003D0BDE81040FDF77DBE10BD00380140E7
:103CA000C80200200C4810B50A4901604FF41651B3
:103CB0004160002181600C22C160C0E90412816171
:103CC000C161FFF7A7FC002803D0BDE81040FDF755
:103CD00061BE10BD0044004010030020FEE7FEE777
:103CE0002DE9F0410F461C4615460521FCF712FC54
:103CF000094E3146FCF7D0FBFCF7E3FD2880052197
:103D00003846FCF707FC3146FCF7C6FBFCF7D9FD4B
:103D10002080BDE8F08100006666E63F7047000045
:103D20002DE9FF473E4CDFF8FC903F4FB4F90260AD
:103D3000DFF8F880DFF8F8A0A6B3E088FCF79EFD76
:103D40004946FCF7A9FB05463046FCF78EFD02F01C
:103D500063FA2946FCF7A0FB8022CDE90028CDE9D3
:103D6000020753460C223349334800F093FAB4F962
:103D70000200002809DDFCF778FD02F04DFAFCF79F
:103D8000B9FD01230146002209E00BDAFCF76DFDC5
:103D900002F042FAFCF7AEFD012301461A4626481E
:103DA00000F0BEF8B4F90450002D37D0E088FCF7DD
:103DB00065FD4946FCF770FB06462846FCF755FDB5
:103DC00002F02AFA3146FCF767FB0222CDE900280F
:103DD000CDE90207534600221849194800F05AFA63
:103DE000B4F90400002809DDFCF73FFD02F014FAE5
:103DF000FCF780FD012301461A4609E00EDAFCF7C4
:103E000034FD02F009FAFCF775FD0123014600229A
:103E100004B00B48BDE8F04700F082B8BDE8FF876A
:103E20003600002000007A440000C8420000204113
:103E300000080140F8010020C00A0020B001002065
:103E4000180E002038B50B4600920446002280214F
:103E500000F008F8002804D0606D40F02000606594
:103E6000032038BD2DE9F8431E4691468846044696
:103E7000089DFEF779F8401B351AFEF775F80746DE
:103E800025480068C0F3CB30684338E0701C37D059
:103E9000FEF76AF8C01BA84203D215B1009860B3C0
:103EA0002CE02068416821F0E00141606068B0F5D5
:103EB000827F0BD1A068B0F5004F02D0B0F5806FC3
:103EC00004D12068016821F040010160A06AB0F5CA
:103ED000005F09D12068016821F400510160206869
:103EE000016841F400510160012084F85100002074
:103EF00084F850000320BDE8F8830025401E0090A0
:103F00002068816838EA010004D000214945BDD10C
:103F10000020F0E70121F9E70C00002070470000C5
:103F200010B5044600F02AFA054A012005499442DA
:103F300000D10870044A944200D1487010BD0000BE
:103F4000C00A002036000020180E002010B50446DC
:103F50000020C4F84C0394F8440330B1012808D081
:103F600002280AD04FF0FF3010BD204600F028F89C
:103F700006E0204600F0C0F802E0204600F0FCF821
:103F8000C4F84C0310BDD0F84C03704790F854139C
:103F900021F0100280F85423D0E9D213C91AC0F8D6
:103FA000481307D0D0F85033994208D8910703D569
:103FB000022102E0032100E0012180F84413704750
:103FC0002DE9F84F044690F8440310B10020BDE8F5
:103FD000F88FD4F84863C82E00D9C82694F8540343
:103FE000000702D504F5DA7001E004F12400074669
:103FF0000025DFF8F8904FF07E5A42E0B54245DAEE
:104000003B48216AFCF748FAE169FCF7BBF98046B6
:10401000E0614FF0FF316069FCF77CFADFF8D4B063
:10402000009059464046FCF705FAA169FCF734FABE
:104030005946FCF7FCF901F045FE80464FF0FF3190
:104040006069FCF767FA4146FCF7F4F92169FCF76F
:1040500099F90099FCF796F980462062206800687B
:10406000C06A401CB9FBF0F0FCF708FC4146FCF7C5
:1040700013FA5146FCF7D8F9FCF73CFC27F8150079
:104080006D1CD4E90610FCF7C5FCB7D994F85403AD
:10409000C110491C61F3C30084F85403B54205DB29
:1040A00040F0100084F85403304690E7012084F873
:1040B000440360692062804620680068C06A401C32
:1040C000B9FBF0F0FCF7DAFB4146FCF7E5F95146A5
:1040D000FCF7AAF9FCF70EFC80B202E027F8150005
:1040E0006D1CB542FADB94F85403D9E700A24A04E8
:1040F00000007A44DB0F494070B5044690F8440351
:10410000012801D0002070BD94F85403000702D5A7
:1041100004F5DA7501E004F1240520680068C06A3E
:104120001449401CB1FBF0F0FCF7A8FB216AFCF736
:10413000B3F94FF07E51FCF777F9FCF7DBFBD4F8CD
:10414000481382B2C82902D9C821002001E000200A
:1041500002E025F81020401C8842FADB94F8540352
:10416000C210521C62F3C30040F0100084F85403E4
:10417000084670BD00A24A042DE9F05F044690F89D
:104180004403022802D00020BDE8F09FD4F8486321
:10419000C82E00D9C82694F85403000702D504F5A8
:1041A000DA7001E004F1240007460025DFF8C8902A
:1041B0004FF07E5B2DE0B54230DA3048216AFCF7E3
:1041C0006BF9E169FCF733F98046E061D4E904A0BA
:1041D0005146FCF729F9A169FCF75EF94146FCF765
:1041E00029F95146FCF7CEF8804620622068006825
:1041F000C06A401CB9FBF0F0FCF740FB4146FCF7FD
:104200004BF95946FCF710F9FCF774FB27F8150039
:104210006D1C2169206AFCF707FCCCD394F8540389
:10422000C110491C61F3C30084F85403B54205DB97
:1042300040F0100084F854033046A5E7206920625E
:10424000804620680068C06A401CB9FBF0F0FCF7AB
:1042500015FB4146FCF720F95946FCF7E5F8FCF759
:1042600049FB80B203E000BF27F815006D1CB54282
:10427000FADB94F85403DBE700A24A0400007A4416
:1042800090F85413090701D52430704700F5DA700F
:10429000704700002DE9F04708AE044696E8210378
:1042A00084E80E00A0814FF0FF3632B1042A0FD00F
:1042B000082A18D00C2A2BD120E00F68F86AFCF7E6
:1042C000DDFA3146FCF726F9FCF714FB78631FE0B2
:1042D0000F68F86AFCF7D2FA3146FCF71BF9FCF7D5
:1042E00009FBB86314E00F68F86AFCF7C7FA3146B7
:1042F000FCF710F9FCF7FEFAF86309E00F68F86ABA
:10430000FCF7BCFA3146FCF705F9FCF7F3FA386420
:104310001034294684E820030F48103CFCF7BCF811
:10432000C4E907054FF4C875294604F12400FBF7DA
:1043300043FF294604F5DA70FBF73EFF032084F8BB
:10434000440394F8540320F0080040F0020084F87D
:104350005403BDE8F087000000007AC490F85403CD
:10436000C0F30010704790F8451311B14FF0FF30C3
:104370007047012180F84513002070472DE9F04770
:1043800091460F460446FFF7EEFFC4F8487394F8D1
:104390005453D4F8188063F3410541462069FCF773
:1043A00049F8DFF87CA05146FCF744F806464FF088
:1043B000FF316069FCF7AEF84146FCF73BF8514627
:1043C000FCF738F83146FBF7DDFFFCF793FA0026DF
:1043D000C4E9D36069F3000584F85453A1894A46BF
:1043E000A068FDF7BCFDA06910F0FF4F4FF0010081
:1043F0000BD0D4F85013B94209D92169216284F84D
:1044000044032046FFF778FE06E06169F6E784F88A
:1044100044632046FFF7D4FDC4F84C03BDE8F087A1
:104420006F12833A90F84513012902D04FF0FF3004
:104430007047002180F8451308467047FDF7AABE73
:1044400030B58FB028216846FBF7B6FE14210AA8C4
:10445000FBF7B2FE01210804CDE90010002402940C
:1044600002250491CDE907504FF4E0100990684609
:10447000FEF708F808B172B6FEE70F20CDE90A058D
:104480004FF48060CDE90C4002210AA80E94FDF79C
:104490001DFF002801D072B6FEE70FB030BD704797
:1044A0000148FEF7FDBB000068010020F0B502687E
:1044B000164B174C174D4FF08047984205D0B84225
:1044C00003D0A04201D0A84203D122F070064A686E
:1044D0003243984205D0B84203D0A04201D0A8424E
:1044E00003D122F44074CA6822434C6922F080024E
:1044F000224302608A68C2620A688262984201D1DD
:104500000969016301214161F0BD0000002C0140F7
:10451000000400400008004010B501F01F03012115
:10452000046A99408C430462016A9A401143016213
:1045300010BD10B5446A0121626A824205D121771B
:104540008069F8B984F83E101CE0A26A824206D164
:10455000022222778069A8B984F83F1012E0E26A4B
:10456000824206D104222277806958B984F840102B
:1045700008E0226B824205D108222277806908B9BF
:1045800084F841102046FEF763FD0020207710BD1F
:1045900010B5446A616A814201D101200DE0A16A2F
:1045A000814201D1022008E0E16A814201D1042068
:1045B00003E0216B814201D1082020772046FEF7DD
:1045C00075FD0020207710BD10B5446A0121626A94
:1045D000824203D1217784F83E1019E0A26A824218
:1045E00004D10220207784F83F1011E0E26A824271
:1045F00004D10420207784F8401009E0226B824225
:1046000004D10820207784F8411001E084F83D109F
:104610002046FEF743FB0020207710BD10B58468CC
:1046200042EA032224F47F440A432243826010BDFD
:10463000826822F070020A4342F0070181607047ED
:1046400030B5036A026A22F001020262426884699C
:1046500024F073050C682C4323F002058B682B4370
:104660000A4DA8420BD123F00805CB6822F4407212
:104670002B434D6923F0040315438A692A434260A2
:10468000846149684163036230BD0000002C014031
:1046900030B5026A036A23F0100303624368846939
:1046A0000D6824F4E64444EA05248D6822F02002D3
:1046B00042EA05120B4DA8420ED1CD6822F08002CD
:1046C00042EA05124D6923F4406343EA85038D698C
:1046D00022F0400243EA85034360846149688163B4
:1046E000026230BD002C014030B5036A026A22F438
:1046F000807202624268C46923F4007324F0730577
:104700000C682C438D6843EA05230C4DA8420ED15A
:10471000CD6823F4006343EA05234D6922F4405237
:1047200042EA05128D6923F4806342EA0512426071
:10473000C4614968C163036230BD0000002C0140C0
:1047400030B5046A026A22F4805202624268C36988
:104750000D6823F4E64343EA05238D6824F40054EE
:1047600044EA0534064DA84204D14D6922F4804242
:1047700042EA85124260C36149680164046230BD47
:10478000002C014010B5036A046A24F0010404629D
:10479000846924F0F00444EA021423F00A020A4374
:1047A0008461026210BD10B5036A046A24F010042B
:1047B0000462846923F0A00324F4704444EA0232C2
:1047C00043EA01118261016210BD10B5406A002107
:1047D000C185C184FEF7E6FD10BD70B5446A20684E
:1047E000406994F84110C0F3C0100025212904D17C
:1047F00018B1E584204600F08EF82068406994F8EE
:104800004210C0F38010222904D118B1E58520465A
:1048100000F05AF8606C40F0100060642046FEF72B
:10482000C1FD70BD10B50146406A096809684FF0C6
:10483000000289062ED4C28501680C3151E8003F80
:1048400023F4807341E80034002CF5D10168143161
:1048500051E8003F23F0010341E80034002CF5D17A
:104860000168143151E8003F23F0400341E800346F
:10487000002CF5D1202180F84210016B012909D1CB
:1048800001680C3151E8003F23F0100341E8003487
:10489000002CF5D14263016B012902D0FEF77EFFA7
:1048A00010BD818DFEF762FD10BD10B5406A01217B
:1048B0004163016B012902D0FEF790FF10BD818D8D
:1048C0004908FEF753FD10BD01680C3151E8002F77
:1048D00022F4907241E80023002BF5D101681431D5
:1048E00051E8002F22F0010241E80023002BF5D10E
:1048F000016B012909D101680C3151E8002F22F028
:10490000100241E80023002BF5D1202180F842104D
:1049100000210163704701680C3151E8002F22F03B
:10492000C00241E80023002BF5D1202180F841107E
:10493000704708B590F84210222901D0022008BD26
:1049400082684FF480539A4201D1016921B1816A92
:104950009A421BD04AB10AE00268816A5268C2F3E7
:1049600008020A80816A891C08E0026972B1026843
:10497000526802F07F020A70816A491C8162C18D0F
:10498000491E0904090CC18503D01BE00268526866
:10499000F1E70168CA6822F02002CA600168CA68AB
:1049A00022F48072CA6001684A6922F001024A61F9
:1049B000202180F8421000214163026B012A03D0BC
:1049C000FEF7ECFE002008BD016301680C3151E8E0
:1049D000002F22F0100241E80023002BF5D10168DE
:1049E0000A68D20602D50A6849680091818DFEF7EF
:1049F000BDFCE7E770B5044600680169E26821F490
:104A00004051114301612169A0680843616908436D
:104A10002168CA6841F20C639A430243CA60206865
:104A20004169A26921F44071114341611E49206826
:104A3000884202D1FDF7F0FC01E0FDF7DDFC00EB60
:104A4000C00101EB0012606864218000B2FBF0F34A
:104A5000B3FBF1F36FF018067343B2FBF0F5B2FB52
:104A6000F0F605EB8305322303EB0515B5FBF1F5F5
:104A7000B6FBF1F605F0F00505EB0615B2FBF0F616
:104A8000B2FBF0F0B0FBF1F06FF01802504306EB10
:104A9000800003EB0010B0FBF1F0216800F00F0084
:104AA0002844886070BD00000038014038B581623C
:104AB00004468285002013466064222284F8422046
:104AC000E56B1B4AAA62E56B1A4AEA62E56B1A4A71
:104AD0002A63E26B50630A462168E06B091DFDF70B
:104AE000F7F82068016840680090206948B12068A4
:104AF0000C3050E8001F41F4807140E80012002A99
:104B0000F5D12068143050E8001F41F0010140E861
:104B10000012002AF5D12068143050E8001F41F03F
:104B2000400140E80012002AF5D1002038BD000005
:104B300025480008AB480008DB47000881628285F1
:104B4000C28500214164222180F84210016921B10F
:104B50000168CA6842F48072CA6001684A6942F01A
:104B600001024A610068C16841F02001C160002073
:104B700070472DE9F041984617460E460446069DBB
:104B800027E0681C25D02DB1FDF7EEF9A0EB080059
:104B9000A8421ED920680C3050E8001F21F4D071C3
:104BA00040E80012002AF5D12068143050E8001FB8
:104BB00021F0010140E80012002AF5D1202084F8FC
:104BC000410084F84200002084F840000320BDE842
:104BD000F0812068006836EA000004D00020B84266
:104BE000CFD00020F3E70120F9E70FB4802130B5E2
:104BF000A1B0054626AB6846259A02F095FE04460C
:104C000082B24FF0FF3369462846FEF7E8FD21B037
:104C1000204630BC5DF814FB0148FEF7C5BB000020
:104C2000C80200200148FEF7BFBB000010030020AF
:104C3000FEE74100080218BF04200A0E18BF40F02A
:104C400001004FF07F4232EA010108BF40F002004C
:104C5000012808BF052070470907090E002804DB5A
:104C600000F1E02080F80014704700F00F0000F120
:104C7000E02080F8141D704700214FF07E50FBF7B4
:104C80000BBC0121FBF746BCFBF77CBB00210846AF
:104C9000FBF702BC61214FF0E040FBF73BBC6FF03B
:104CA0005E010807FBF736BC2DE9F04D0D461446B2
:104CB0004FF07F41B1EB440F9EBF4FF0FF312960B1
:104CC000BDE8F08D4FF0004040EA0421C4F3C75026
:104CD000783810F01F024A4B4FEA601CC2F12006E0
:104CE0007B44C4F3C750A0F178004FEA601003EB97
:104CF000800053F82C3008BFD0E901C612D0D0F89C
:104D000004C093402CFA06F73B4387680CFA02FC78
:104D100027FA06F8C06807FA02F2F0404CEA080CDD
:104D200042EA0006A3FB0132ACFB01C0A6FB016115
:104D300001EB0C068E4234BF4FF0010C4FF0000C1B
:104D4000C1186144BCF1000F02D0814202D903E0D6
:104D5000814201D2012000E00020104400F1200235
:104D60004FEA92188006CA0C40EA42304F03C5F859
:104D70000080FBF77AFD82463846FBF77FFD6FF037
:104D80001201FBF7C7FB07463046FBF777FD6FF0D4
:104D90002501FBF7BFFB834639465046FBF7F2FA85
:104DA0005946FBF7EFFA00F500666FF30B06514624
:104DB0003046FBF739FB3946FBF736FB5946FBF724
:104DC00036FB1049FBF736FB07460F493046FBF729
:104DD00031FB3946FBF7D6FA07460C493046FBF75C
:104DE00029FB3946FBF7CEFA14F0004F08BFBDE8A7
:104DF000F08DC8F1805180F000402960BDE8F08D51
:104E000024370000DB0FC92F22AAFD290000C92F7B
:104E100002E008C8121F08C1002AFAD17047704783
:104E2000002001E001C1121F002AFBD170470000E1
:104E300001490860704700006400002070B5044616
:104E400000256FF02F0608E02068411C21600078E3
:104E500005EB850106EB410145182068007800F05C
:104E6000E5FA0028F0D1284670BD00002DE9FF4F7B
:104E700089B016AEDDF8688096E8B0084FF0FF36CE
:104E800022462B4620462946FBF794FD0ED132469A
:104E9000AC4B20462946FBF7A5FD07D332466FF4FD
:104EA000801320462946FBF785FD0BD2CDF81080F4
:104EB0008DE8B00809AE96E80F0000F06FF90DB06C
:104EC000BDE8F08F0022134620462946FBF772FD0D
:104ED00004D2012085F00045079001E000200790F2
:104EE0005FEA485000D406279749C5F30A56C5F330
:104EF000130C20464CEA01010022944BA6F2FF3627
:104F0000FBF7B5FB924A934BFBF7B7FB81468A460A
:104F10003046FBF7B8FC904A904BFBF7AEFB904A4B
:104F2000904BFBF703FB4A465346FBF7FFFAFBF7B0
:104F3000F5FC0646FBF7A7FC81468B4A8B4B01919B
:104F4000FBF79BFB00228A4BFBF7F0FAFBF7E6FC32
:104F50000590FBF798FC874A874BFBF78EFB824650
:104F600003914846854A864B0199FBF786FB5246DA
:104F7000039BFBF77CFB81468A4602460B46FBF708
:104F80007CFBCDE90310059840F2FF31000500EBF2
:104F900001500290DDE9031000227A4BFBF7DFFBA2
:104FA0000022794BFBF7C2FA02460B46DDE90310FB
:104FB000FBF7D5FB0022754BFBF7B8FA02460B4610
:104FC000DDE90310FBF7CBFB059108904A465346F9
:104FD00000204FF08041FBF74AFB059B089AFBF746
:104FE000A5FACDE90310012248465146FBF726FCFD
:104FF000DDE90332FBF7B3FB0022534BFBF796FAD4
:105000000022029BFBF739FB81468A4602460B468B
:105010000091029020462946FBF7CCFC08D20022E2
:10502000594B48465146761EFBF799FB009102907A
:1050300006F16300C72801D2042000E00520814664
:105040005FEA08501ED5524A524B20462946FBF7CC
:10505000C9FC12D80022504B20462946FBF7AAFC77
:105060000BD2B74202DDBF1B7F1E00E000274FF0CE
:10507000000948F480684E4604E01FB15FEA4850DA
:1050800000D57F1ECB4502D9ABEB090000E0002024
:1050900082465FEA887004D5B9F1000F01D04FF065
:1050A000000A3EB120462946009B029AFBF757FBB7
:1050B00004460D460B980890079808B185F0004506
:1050C00028F40060CDE903A08DE8B0000DF1240CB8
:1050D0009CE80F0000F062F80446B9F1000F2FD0F1
:1050E000651C22465FEA886001D5452000E0652006
:1050F000DDE909410C9BA04702AC0523A9F101029F
:1051000000210A2084E80F00F00F002E00DA76421A
:10511000CDE90060DDE909012A460C9B00F006FAA2
:1051200004465FEA887007D40AE02246DDE90951A7
:10513000641C20200C9BA8470898211A5945F4D3D9
:105140002046BCE6FFFFEF7F0000F03F0000F83F85
:1051500061436F63A787D23FFB799F501344D33FCE
:10516000B3C8608B288AC63F71A379094F930A4060
:105170000000E03FEF39FAFE422EE63F1655B5BB80
:10518000B16B024000002C40000024400000184099
:105190002D431CEBE2361A3F80842E412DE9FF4F50
:1051A0008DB01AACDDE91D9794E860044FF0FF382C
:1051B00000242A46334628463146FBF7FBFB02D043
:1051C00003218FA209E042466FF48013284631463E
:1051D000FBF7F0FB09D204218AA2CDE90021CDE939
:1051E00002970DAC94E80F0007E14246874B284632
:1051F0003146FBF7F7FB07D2790702D5042184A2D9
:10520000EBE7032184A2E8E70022844B28463146DD
:10521000FBF7E8FB06D30022814B28463146FBF71B
:10522000C9FB0BD28DE86004CDE903970DAC94E87F
:105230000F00FFF71BFE11B0BDE8F08F0020024603
:105240000346029028463146FBF7B4FB03D2012007
:1052500086F00046029078050AD44FF0060A07E06F
:1052600005A830210155641CAAF1010A202C04D2A2
:10527000DFF8B081BAF1090FF2D828463146FBF7C2
:105280004DFB8346FBF7FFFA2A463346FBF7F2F95C
:1052900008EBCA030393D3E90023FBF7EEF9CDE94A
:1052A0000001FBF75AFB8046FBF7FEFADDE900231D
:1052B000FBF7E0F900225C4BCDE90001FBF792FB24
:1052C0000FD208F101008046FBF7EEFA039BD3E909
:1052D0000023FBF787FB13D84FF000080BF1010BFD
:1052E0000EE0DDE9000100224F4BFBF763FB07D323
:1052F00008F00100401E10EA080F01D108F1010872
:10530000BAF1000002D00A2205A92AE05846FBF7AC
:10531000BAFA2A463346FBF7ADF9DFF80C810546A9
:105320000E4600224346FBF75DFB06D900224346AA
:1053300028463146FBF756FB21D25FEACB701ED0E0
:105340000BF1010B1BE000BFB8FBF2F502FB15836C
:1053500030330B55B8FBF2F3401E641C5FEA0308C0
:1053600005D0202CF0D31AE00A55641C00E030224E
:10537000202C14D2401EF7D22E200855641C0A207F
:1053800005A9202C0BD29BFBF0F300FB13B23032AB
:105390000A559BFBF0F2641C5FEA020BF1D1B807DF
:1053A00014D4F80712D0B9F1000F06D0029907F013
:1053B0000C00084301D0A9F10109302005A94C4592
:1053C00004D2202C12D20855641CF8E7202C0DD2F0
:1053D000029808B12D2106E0780701D52B2102E0C3
:1053E000380703D5202105A80155641C05A903979A
:1053F0008DE812020DAD95E80F0000F01CF91AE7D8
:105400006E616E00666E692D00000000FFFFEF7F89
:10541000666E692B00000000666E690065CDCD41A7
:1054200065CDCDC1788200080000E03F3038092802
:1054300001D8012070470020704730380A2801D277
:1054400001207047002070472DE9FF5F91468A4692
:105450008346DDE90E20DDE91341DDE91167DDF862
:1054600040C05FEA81784FF030051AD45CB15FEA42
:10547000C17808D001F00C0858EA0C0803D0641E6B
:1054800001E01554401CB84204D22028F9D301E0B1
:105490001554401C5FEAC17803D0A04201D22028F5
:1054A000F6D35FEAC16825D55FEA41580AD448B10E
:1054B000B84201D0A04205D1401E03D0102E03D126
:1054C000401E04E0102E02D0022E0AD00EE08E06FE
:1054D00003D420281ED2782606E020281AD2582687
:1054E00002E0202816D262261654401C202811D231
:1054F0001554401C20280DD2BCF1000F01D02D25E1
:1055000006E04D0701D52B2502E00D0702D5202529
:105510001554401CCDE90020CDE902414A465146D0
:10552000584600F088F804B0BDE8F09F2DE9F04F30
:105530008FB099468B46DDE91818DDE91C63DDE97B
:105540001A4792468646002209B923F010035805EF
:1055500007AD00D5C9B1B1FBF4F004FB1010C0B227
:105560000A2801D2303009E05FEA836C02D54FF09F
:10557000410C01E04FF0610C60440A38B1FBF4F1DA
:10558000A854521C09B1202AE5D3CDF80880CDE9F2
:105590000563CDE90052CDE903474B4652465946D3
:1055A0007046FFF751FF0FB0BDE8F08F2DE9FF4FB8
:1055B0008FB01CACDDE9239594E8030820AC94E897
:1055C000C004002450EA010201D125F010056A054B
:1055D0000DF11C0802D550EA010217D032463B46B5
:1055E000FAF7A2FDD2B20A2A01D2303206E0AB06A7
:1055F00001D5412300E061231A440A3A08F8042047
:10560000641C50EA010201D0202CE7D3CDE90084CC
:10561000CDF808B0CDE90595CDE9036A0FAF97E85D
:105620000F00FFF711FF13B0BDE8F08F9A4200D2D0
:105630008854704770472DE9FF5F80460FA8DDF85A
:1056400038B090E8C004144691465FEA8A7014D1DD
:10565000354607E02246641C2020C446039B01997E
:10566000E0476D1CBD42F5D307E02246641C761E60
:10567000039B1BF806000199C047002EF5D15FEA95
:105680008A7006D409E02246641C2020039B0199FD
:10569000C047A4EB0900B842F5D304B02046BDE8EA
:1056A000F09F00002DE9FF4F89B005460A980024BD
:1056B0009246002800D1F74D75E1252804D02246F6
:1056C000641C53460A9933E2491C4FF0000808460F
:1056D0000C9101782B2919D004DC202919D0232919
:1056E00004D119E02D290ED0302909D00026C8B2E6
:1056F000FFF79CFEB0B10CA8FFF7A0FB06461FE029
:1057000048F001010AE048F0020107E048F0040116
:1057100004E048F0080101E048F01001401C884610
:105720000C90D6E70C9801782A2909D1169940C91E
:105730001691002E02DA48F002087642401C0C90C6
:105740000C984FF0000B01782E2919D1401C0C90B9
:1057500048F480680078FFF769FE20B10CA8FFF7D5
:105760006DFB83460CE00C9A10782A2808D1169914
:1057700001C91691002800DC0020521C83460C92BF
:105780000C9801786C290AD004DC68290FD06A29AA
:1057900019D129E074292AD07A2914D127E0401C94
:1057A0000C90017848F480786C291DD00BE0401CE7
:1057B0000C90017848F08008682904D148F0400135
:1057C000401C88460C90007865280CD019DC5828BD
:1057D00029D00FDC252879D0452804D0462876D05A
:1057E00047287FF46CAFFFE048F40071E8E748F425
:1057F0008071E5E7622816D0632869D06428F0D16B
:1058000011E0702877D008DC662860D0672873D054
:10581000692808D06F28E4D105E073286DD0752879
:1058200001D07828DDD1782809D0582807D06F28F2
:1058300031D0622831D00A2128F0100802E010216E
:1058400058282CD0692803D0642801D028F00C08EF
:105850005FEA485201D528F00108692822D064285F
:1058600020D05FEA88506CD5169804ABC01D00228A
:1058700083E806080292CDE9076820F00700534646
:10588000F0E80212CDE900121690224628460A9945
:10589000FFF78CFEC7E00821D8E70221D6E748F0E1
:1058A0002008D3E75FEA885028D5169804AFC01DBA
:1058B00020F00703F3E802021693002387E80A08A2
:1058C000CDE90768002A04DA012103E02BE173E047
:1058D000ABE000210023029119461B1A914101DA25
:1058E000114603E00021404261EB0201534622468B
:1058F000CDE90001CAE70CE176E0BDE05FEAC850FF
:1059000004D5169A01CA0FE0404215E05FEA4860EC
:1059100003D5169A12F8040B06E05FEA0860F0D58A
:10592000169A32F8040B00B21692CDE9021BCDE9AB
:105930000468C10F0028E7DD53462246CDE9000187
:1059400029E05FEAC8500CD5CDE9021BCDE9046817
:1059500000211698534604C8CDE90021169022462E
:1059600019E05FEA486003D5169A12F8040B08E0C4
:10597000169A5FEA086003D532F8040B80B200E0A3
:1059800001CA1692CDE9021B0021CDE90001CDE943
:1059900004685346224628460A99FFF7C7FD42E0AD
:1059A0000C98401C0C900C99087800287FF485AE68
:1059B000544571D22246BFE0462801D148F0200864
:1059C0001698CDF808B0C01DCDE9036820F0070097
:1059D0005346F0E80212CDE90012169022462846FE
:1059E0000A99FFF7DBFB1EE0672801D0472801D1A9
:1059F00048F40068452801D0472801D148F0200824
:105A00001698CDF808B0C01DCDE9036820F0070056
:105A10005346F0E80212CDE90012169022462846BD
:105A20000A99FFF723FA0446BAE701275FEA88706C
:105A300006D509E02246641C534620200A99A8474F
:105A400038467F1CB042F5D316992246641C11F8E3
:105A5000040B169153460A99A8475FEA887006D44A
:105A60009EE72246641C534620200A99A8473846E0
:105A70007F1CB042F5D393E7169850F8049B16901C
:105A80004B46BBF1000001D0014601E04FF0FF3171
:105A9000484603E0355600084CE0401C02780AB145
:105AA000491EFAD2C71A5FEA485003D558465F45E7
:105AB00000D307465FEA887006D512E02246641CD0
:105AC000534620200A99A84738467F1CB042F5D398
:105AD00007E000BF224609F10109641C53460A99F8
