:020000040800F2
:10000000701A002005010008B33C0008C93400083C
:10001000B13C00081D0B0008B950000800000000AA
:100020000000000000000000000000006543000820
:10003000AF12000800000000653E0008514A0008A9
:100040001F0100081F0100081F0100081F01000810
:100050001F0100081F0100081F0100081F01000800
:100060001F0100081F0100081F0100081F010008F0
:100070001F010008611200081F0100086D1200082E
:10008000791200081F0100081F0100081F01000865
:100090001F0100081F0100081F0100081F010008C0
:1000A0001F010008B54A00081F0100081F010008D1
:1000B000C14A0008CD4A00081F0100081F010008BE
:1000C0001F0100081F0100081F0100081F01000890
:1000D0001F0100081F010008AD5000081F010008A3
:1000E0001F0100081F0100081F010008DFF810D0E1
:1000F00000F0C0FC0048004705650008AFF3008031
:10010000701A00200648804706480047FEE7FEE7D1
:10011000FEE7FEE7FEE7FEE7FEE7FEE7FEE7FEE7B7
:10012000B34A0008ED0000082DE9F05F0546002005
:1001300092469B4688460646814640241BE0284658
:1001400041464746224600F020F853465A46C01A18
:10015000914110D311461846224600F0B7FB2D1AE4
:1001600067EB01084F4622460120002100F0AEFB5C
:1001700017EB00094E41201EA4F10104DFDC4846C4
:1001800031462A464346BDE8F09F202A04DB203A48
:1001900021FA02F00021704721FA02F3D040C2F1A7
:1001A00020029140084319467047D2B201E000F89E
:1001B000012B491EFBD270470022F6E710B513460B
:1001C0000A4604461946FFF7F0FF204610BD421CC0
:1001D00010F8011B0029FBD1801A7047F0B480EAA7
:1001E0000102D40F4200B2EB410F02D20246084690
:1001F00011464A0042D0C30DDDB2C1F3C752AD1A59
:10020000202D35DAC1F3160141F4000204B1524247
:10021000C5F1200602FA06F12A411044B3EBD05F83
:1002200023D0C4B1012DA0EBC35009DCF0BC4FF0CA
:10023000004202EAC352DBB200F5000000F070BBDE
:10024000400000F1807000EBC350A0F1807040EAE4
:10025000D170490009E0490841EAC071A0EBC350E0
:1002600000F50000400800EBC350F0BC00F04FBBAD
:100270006142012202EB4101001BF6E7F0BC70472E
:1002800081F00041AAE780F00040A7E780EA010280
:1002900010B502F00043400022D04A001FD0010EEA
:1002A00001EB1261C0F35600C2F3560240F40000A5
:1002B00042F40002A0FB022000047F39140400D0A5
:1002C000401C50EA124001D44000491EC2B20C0644
:1002D00004EBD010401C4008802A02D003E000202C
:1002E00010BD20F00100002900DA0020184310BDE5
:1002F00030B480EA010202F0004530F0004221F003
:10030000004013D090B1C30DD40DC2F31601C0F359
:100310001600E41A41F4000140F400027D349142D9
:1003200001D3641C00E04900002C02DA30BC00203C
:1003300070474FF400000023914201D3891A034310
:1003400040084FEA4101F7D151B1914202D14FF03B
:10035000004105E002D24FF0010101E06FF0010120
:1003600003EBC450284430BC00F0D1BA420005D0A1
:10037000C0F3C7525242914201DC0020704700EBAB
:10038000C15070472DE9FE4F804681EA0300C00F3F
:100390000C46009021F0004123F00045B8EB02002C
:1003A000A94105D24046214690461C460B460246CE
:1003B00023F00040104347D0270DC7F30A00C3F3D2
:1003C0000A510290401A019040286BDAC3F31300DF
:1003D00040F4801B0098924620B10023D2EB030A20
:1003E00063EB0B0B01985946C0F14002504600F0F8
:1003F0006DFA06460D4650465946019A00F075FAC8
:1004000010EB08006141002487EA115284EAE77387
:100410001A4340D0009A62B3019A012A4FEA075268
:1004200015DC001B61EB02014FF0004202EA0752AB
:10043000CDE90042001C41F5801132462B4600F008
:10044000CAFA03B0BDE8F08F40462146F9E7001B29
:1004500061EB0201001C41F5801300185B4120187C
:10046000A2F5001747EB030140EAD570B6196D41BC
:1004700011E06D084FEA360645EAC0754FEA0752AB
:10048000001B61EB0201001C41F5801149084FEA95
:1004900030000019514132462B4603B0BDE8F04F01
:1004A00000F08ABA0098012240000023D0EB02023B
:1004B00063EBE073009821464FEAE074B8EB00006C
:1004C00061EB0401E9E783F000435BE781F0004161
:1004D00058E72DE9FE4F81EA030404F0004421F0BF
:1004E000004100944FF0000B23F0004350EA010458
:1004F0005ED052EA03045BD0C3F30A54C1F30A5539
:100500002C44A4F2F3340194A0FB0254C1F3130170
:1005100041F48011C3F3130343F4801301FB02443D
:1005200000FB034E840A970A44EA815447EA835742
:10053000A4FB076802958D0A05FB07854FEA932CFB
:1005400004FB0C542705029D4FEA065847EA16376C
:10055000B5EB08056EEB070C870E920E47EA811784
:1005600042EA8312A7FB0201B6EB0B0164EB000425
:100570002B0D43EA0C335E1844EB1C50DA4651460F
:10058000E7FB0201C5F313044FEA0B3343EA1453AC
:100590004FEA0432019C43EA0603A4F10C040294DE
:1005A000009CCDE900B400F016FA03B0BDE8F08F6E
:1005B00000200146F9E72DE9F04D81EA030404F03B
:1005C000004B21F0004514464FF0000A23F0004193
:1005D00050EA050220D054EA01021DD0C5F30A57A3
:1005E0000246C5F31303C1F31300C1F30A5640F4E6
:1005F000801543F48013A7EB0608101BD64608F2BB
:10060000FD3873EB050002D308F1010801E09218F0
:100610005B41B8F1000F03DA00200146BDE8F08D20
:1006200000204FF48011064684460EE0171B73EB42
:10063000050705D3121B63EB050306434CEA010CC7
:1006400049084FEA300092185B4150EA0107EDD1AA
:1006500052EA030012D082EA040083EA050108434B
:1006600005D0101BAB4106D20122002306E0002278
:100670004FF0004302E06FF0010253101AEB060046
:100680004CEB085110EB0A0041EB0B01BDE8F04DBB
:1006900000F092B970B521F0004303430CD0C1F3D0
:1006A0000A550024D5EB040564EB0403D617AD1AF4
:1006B000B34102DB0020014670BD201841EB02511E
:1006C00070BDC10F80EAE0700844CA07962300217C
:1006D00000F026B996230022114600F021B90EB58C
:1006E000C10F80EAE0700844CA07002140F233439A
:1006F0008DE80E000A460B4600F06DF903B000BD10
:100700000EB540F2334102910021CDE900110A46B5
:100710000B4600F060F903B000BD00F0004220F08D
:100720000040C10DC0F3160040F400007F2901DA3B
:1007300000207047962903DCC1F19601C84001E012
:1007400096398840002AF4D04042704720F000409B
:10075000C10DC0F3160040F400007F2901DA00202B
:100760007047962903DCC1F19601C840704796395D
:100770008840704770B5C1F30A5201F0004500246B
:10078000C1F3130140F2FF3341F480119A4201DAC0
:10079000002070BD40F233439A42A2F2334203DCA0
:1007A0005242FFF7F2FC00E090402C43F1D040426F
:1007B00070BDC1F30A5210B5C1F3130140F2FF330B
:1007C00041F480119A4201DA002010BD40F2334317
:1007D0009A42A2F2334203DC5242FFF7D6FC10BD2C
:1007E000904010BD00F0004230F000400AD0C10D32
:1007F00001F56071C0F3160042EA0151C2084007DA
:1008000011437047002001467047000030B5041EB8
:1008100071F1000404DB4FF00044404264EB01013D
:10082000141E73F1000405DB1C464FF000435242D6
:1008300063EB04038B4208BF824230BD30B5041E17
:1008400071F1000404DB4FF00044404264EB01010D
:10085000141E73F1000405DB1C464FF000435242A6
:1008600063EB0403994208BF904230BD01F000439E
:1008700030B421F0004150EA010206D00A0DA2F581
:100880006072C1F31301002A02DC30BC0020704703
:10089000440F44EAC104C100E01830BC00EBC25070
:1008A00000F035B8002801DBC0F10040002901DB71
:1008B000C1F1004181427047002801DBC0F10040D6
:1008C000002901DBC1F1004188427047202A04DB86
:1008D000203A00FA02F1002070479140C2F1200353
:1008E00020FA03F3194390407047202A06DBCB1708
:1008F000203A41FA02F043EAE07306E041FA02F3DB
:10090000D040C2F1200291400843194670470029A7
:10091000A8BF7047401C490008BF20F00100704785
:1009200010B4B0FA80FC00FA0CF050EA010404BFE5
:1009300010BC704749B1CCF1200421FA04F411FA3B
:100940000CF118BF012121430843A3EB0C01CB1D7F
:100950004FEA00614FEA102042BF002010BC7047F0
:1009600000EBC35010440029A4BF10BC7047401CCA
:10097000490008BF20F0010010BC704710B54100CD
:100980000CD0C0F3C751962908DC7E2909DC06DBB0
:10099000410204D000F0004040F07E5010BD002025
:1009A00010BDC1F19604C4F1200100FA01F1E0404C
:1009B000FFF7ADFFA04010BD10B5141E73F1000489
:1009C00008DA401C41F1000192185B411A4301D141
:1009D00020F0010010BD2DE9F04D92469B4611B16B
:1009E000B1FA81F202E0B0FA80F220329046FFF7CD
:1009F0006DFF04460F4640EA0A0041EA0B015346E8
:100A00005A46084313D0114653EA010019D0C8F1E1
:100A100040025046FFF7B9FB05460E465046594680
:100A20004246FFF753FF084305D0012004E020466B
:100A30003946BDE8F08D0020054346EAE0762C43B8
:100A400037430A986305E40AA0EB08000022FD0A78
:100A500044EA47540A3002D500200146E9E701057F
:100A600010196941DDE9084500196941BDE8F04DFB
:100A7000A2E70000064C074D06E0E06840F00103E5
:100A800094E8070098471034AC42F6D3FFF732FBE6
:100A9000EC8100080C82000870B58C1810F8015B1E
:100AA00015F0070301D110F8013B2A1106D110F807
:100AB000012B03E010F8016B01F8016B5B1EF9D10B
:100AC0002B0705D40023521E0DD401F8013BFAE791
:100AD00010F8013BCB1A921C03E013F8015B01F8FC
:100AE000015B521EF9D5A142D8D3002070BD000091
:100AF0003EB532248DE81C000A4632284FF001032F
:100B00004FF06C0103D0034800F088FF3EBD02485F
:100B1000FAE70000A401002050010020FEE7704722
:100B200070B504462E48844209D120212D4800F09A
:100B300099FE0028207844D020F002002070284838
:100B4000294D2030844209D1A915284600F08AFE9B
:100B50000028207838D020F0020020702048403053
:100B600084420AD14FF40071284600F07BFE002831
:100B700020782CD020F00200207019481B4D6030E6
:100B8000844209D16914284600F06CFE00282078C0
:100B900020D020F0020020701148803084420AD119
:100BA0004FF48041284600F05DFE0028207814D0E4
:100BB00020F0020020702078410861F300002070CE
:100BC00070BD40F00200B9E740F00200C5E740F018
:100BD0000200D1E740F00200DDE740F00200E9E763
:100BE000980A002000080140000C0140001001405C
:100BF0002DE9F04116490746012008701548007894
:100C0000012823D11448DFF854800024144D154ED8
:100C1000874207D1B8F80010052089B12C803080B8
:100C200003F086F91048874210D1B8F800106FF031
:100C3000040041B12C803080BDE8F04103F078B968
:100C400028803480ECE728803480F5E7BDE8F08127
:100C50003100002010000020F80A00200C010020C4
:100C60000001002002010020180B0020064A11702C
:100C7000002101750161516819B1916808619060A6
:100C800070475060FBE70000240000207047704769
:100C9000704700002DE9FF5F0446007FDFF8F49302
:100CA000DFF8F4A3DFF8F483FD4F012500260128C7
:100CB0007ED1FC48FC4905708C4208D1FB490222D8
:100CC0008A704D70FA490D700570FA480570FA483F
:100CD000844215D1F5480178491CC9B20170042934
:100CE00001D9057008E0012906D0022904D0F34992
:100CF0004FF4C870088083E0F0494FF47A700880A0
:100D0000EA480078012837D1ED48DFF8B8B38442CB
:100D100004D1BBF8001041B1ABF80060EA4884424E
:100D200012D199F8450318B10EE0ABF80050F5E781
:100D30009AF8450340B9BBF8000060B1A8F800601C
:100D4000A7F8005003F0F4F8E048844214D199F871
:100D5000450320B110E0A8F800503E80F2E79AF871
:100D6000450348B9BBF800104FF0FF3049B1A8F86F
:100D70000060388003F0DCF8CC480178022904D008
:100D80003EE0A8F800003E80F4E7CD498C422AD12D
:100D900099F8451339BB9AF8451321BB8346CC49D2
:100DA000C078CC4B31F920201A8001EB800000E0A4
:100DB00060E0B0F90230C8480380C848CDE9008738
:100DC000B0F90010C648B0F9000002F073FF03F05C
:100DD000AFF89BF80300401CC0B28BF80300032857
:100DE00001D98BF80360B849BE488C4202D1018812
:100DF0000A310180B5498C4202D101880A3901804B
:100E0000AA480078032835D1AD4884420DD199F81D
:100E1000450350B99AF8450338B9B349AC4803F0D3
:100E200023F8B2480580B2480680A748844219D109
:100E3000A2484FF4C8720188914202D14FF4167152
:100E400008E04FF44873B1F5167F05D0994205D1FB
:100E50004FF47A71018005E0038003E0B1F57A7FF9
:100E600000D102809948844259D1A248017811B139
:100E7000012902D053E0057051E0DFF880B29E49AD
:100E80008022CDE9002BCDE902B19D4B0C229D497A
:100E9000804803F0D4FC98490222CDE9002BCDE92B
:100EA00002B1974B002298497B4803F0C8FC974851
:100EB00001689748006851EA000228D009B2A8F8F2
:100EC00000103880002903DD4FF000031A4606E0C9
:100ED00008DAC1F100014FF000034FF001026D4844
:100EE00003F042FAB7F90010002904DD4FF00003C7
:100EF0004FF0010205E007DA4FF00003C1F10001F5
:100F00001A46654803F030FA8248057005E07748D4
:100F1000058077480188491C01807648067063483F
:100F2000007804287BD16648844211D199F84503A2
:100F300070B99AF8450358B96B49774802F094FFA5
:100F40006A4805806A4806807448068074480680AE
:100F50005D48844212D159480188C82906D0B1F5AC
:100F6000C87F06D0B1F5167F06D007E04FF4C871F0
:100F700003E04FF4167100E0C82101805348844219
:100F800062D15C48007810B1012803D01CE05948B8
:100F9000057019E0DFF864B157498022CDE9002BD4
:100FA000CDE902B1564B0C2256493A4803F047FCB2
:100FB00051490222CDE9002BCDE902B1504B00226C
:100FC0005149354803F03BFC5048016850480068DF
:100FD00051EA000230D00AB203B2A8F800203B80E8
:100FE00050A1554804F04BF8B8F90010002904DD71
:100FF0004FF000034FF0010205E007DA4FF0000365
:10100000C1F100011A46234803F0AEF9B7F9001008
:10101000002905DD4FF000034FF0010206E013E068
:1010200007DA4FF00003C1F100011A461A4803F035
:101030009BF93848057005E02C4805802C4801884C
:10104000491C01802B480670207F022820D11848B7
:101050000570194884421BD199F84503002817D11F
:101060009AF84503002813D11A48324613460680E1
:10107000194806801948CDE90087B0F900101848D2
:10108000B0F9000002F016FEBDE8FF5F02F050BFAD
:10109000BDE8FF9F180D0020701000200001002007
:1010A0000201002032000020980A002010000020D9
:1010B0003300002031000020B80A00200401002085
:1010C000D80A00200C010020F80A0020180B00208C
:1010D0000E010020FC000020FE000020FA0000208D
:1010E000F80000200A010020C81300202E01002073
:1010F000F2000020360100200000FA430000A04169
:1011000000080140E0020020980200203801002081
:101110003C010020400100201E010020340100207D
:101120003201002050756C73655F4E756D3A256411
:101130002C25640A00000000B00300202DE9F041D6
:101140003A4E642700254FF0020874686AE0204692
:10115000FFF7E6FC2078810705D4217D032901D122
:101160006168A1616560C0F34001084203D0327834
:10117000616811446160217D042907D0A5600529BB
:101180004FD2DFE801F0080E1B2E3F003378A26833
:101190001A44A260F3E72577800742D50120207525
:1011A0003FE0800701D425753BE06068142838D9FA
:1011B00084F814802046FFF769FD32E0800705D4EB
:1011C00004202075207F401C20772AE06068B0F55D
:1011D000487F26D903202075A7812046FFF79FFC72
:1011E0001FE0A08918B13178401AA08103E0A781DF
:1011F0002046FFF7FDFC2078800712D42046FFF739
:1012000047FD05E0A068C82806D92046FFF742FD43
:101210002046FFF73CFDC6E76068142801D984F832
:1012200014802469002C92D1BDE8F08124000020B4
:1012300010B5029C00EB840044697CB124789C4288
:1012400003D041610978994206D1012A06D041694B
:10125000491C4161087808B1002010BD012010BD73
:10126000014800F0EDB800006C030020014800F0D8
:10127000E7B8000028030020014800F0E1B80000B2
:101280004004002030B590F840500124AC40C56BBC
:101290006C60046863604368102B036803D0996036
:1012A0000068C26030BD9A600068C16030BD7047A0
:1012B00072B6FEE770B500F027F8104C05462168BD
:1012C000FEF7DEFF0E4A20F00041914209DDB0F545
:1012D000000F02DB4FF0FF3000E00120616808449E
:1012E000606025606068FFF7ECF90649FEF7CEFF05
:1012F0002946BDE87040FEF771BF0000E8000020FD
:101300007CD9A040DB0FC940F8B50646002000900C
:1013100002236A460C213046FFF7EAFBBDF80000C5
:1013200040BA00B2FFF7CDF90949FEF7AFFF6FF001
:101330000B01FFF71BF804460649074F074DFEF760
:10134000D7FF3946FEF7A2FFA8652046F8BD00008A
:10135000DB0FC940DB0F494000003443980C0020EC
:1013600010B590F821100022022905D004218163D4
:1013700080F82020012010BD01680B6823F00E03C7
:101380000B6001680B6823F001030B6090F840309C
:10139000C46B012101FA03F3636080F8211080F827
:1013A0002020104610BD000010B590F82110002438
:1013B000022903D00421816301243DE001680A6809
:1013C00022F00E020A6001680A6822F001020A6037
:1013D0001A4A0168914201D1012121E0174A1432D1
:1013E000914201D110211BE0144A2832914201D1CF
:1013F000891515E0114A3C32914201D189140FE060
:101400000E4A5032914202D14FF4803108E00B4A2B
:101410006432914202D14FF4801101E04FF08071AB
:10142000064A083A5160012180F82110002180F815
:101430002010416B01B18847204610BD08000240D2
:101440002DE9F05FC16B0C6801680B68D0F840C0F3
:10145000042202FA0CF2494DDFF824A1494E4A4F0A
:10146000DFF828B1DFF828E122422CD05A072AD52C
:101470000A68920603D40A6822F004020A6001682E
:10148000A94201D1042219E0514501D1402215E0C1
:10149000B14202D14FF4806210E0B94202D14FF460
:1014A00080420BE0594502D14FF4802206E071459D
:1014B00002D14FF4800201E04FF080622F490839D9
:1014C0004A60C16A3BE04FF0020808FA0CF818EADB
:1014D000040F4FF000094FF0010235D05FEA837826
:1014E00032D50B689B0605D40B6823F00A030B600A
:1014F00080F821200168A94201D1022219E051455A
:1015000001D1202215E0B14202D14FF4007210E067
:10151000B94202D14FF400520BE0594502D14FF4C9
:10152000003206E0714502D14FF4001201E04FF0A5
:101530000072124908394A6080F82090816A0029B7
:101540001AD0BDE8F05F0847082505FA0CF52542DA
:1015500012D01B0710D50B6823F00E030B6090F818
:101560004010C36B02FA01F15960826380F82120B8
:1015700080F82090016BE2E7BDE8F09F0800024090
:101580001C0002403000024044000240580002406B
:101590006C00024030B528B308C81349142219441E
:1015A000B1FBF2F18900C1631049816302214177E7
:1015B0001A6843F6F0718A43D0E900142143D0E958
:1015C00002452C4321430469214344692143846932
:1015D00021431143196000214163012242770177C1
:1015E000084630BD012030BDF8FFFDBF00000240BD
:1015F00070B5044690F82000002501280CD0012089
:1016000084F8200094F821600020012E06D084F890
:1016100020000225284670BD022070BD022684F8F5
:101620002160A0632068066826F001060660204657
:10163000FFF728FEE06A00282068016802D041F028
:101640000E0106E021F0040101602068016841F00C
:101650000A0101602068016841F001010160D9E7D9
:1016600070B5044600F010F90546601C02D004482D
:101670000078044400F008F9401BA042FAD370BD82
:10168000000000202DE9F84FDFF8B8910024A9F1FF
:10169000040B23460F2709F1040AABF1040EC9E03D
:1016A0000125A5402A40AA427DD1674ED1F804C049
:1016B000ACEB0608B44532D014DCBCF1030F3AD0D1
:1016C00009DCBCF1000F2AD0BCF1010F1CD0BCF129
:1016D000020F31D11DE0BCF1110F17D0BCF1120F78
:1016E0002AD119E0B8F5881F19D006DCB8F5803F7B
:1016F00015D0B8F5801F1FD111E0B8F5001F0ED02E
:10170000B8F5041F18D10AE0CB6815E0CB681B1DA3
:1017100012E0CB6808330FE0CB680C330CE08B6829
:101720002BB1012B4FF0080303D0456104E00423E3
:1017300002E0056100E00023FF2A01D8064601E02F
:1017400000F104064FEA840501D9A5F12005D6F879
:10175000008007FA05FC28EA0C0803FA05F548EAB8
:101760000508C6F800804D68ED0062D5374DAE69BA
:1017700046F00106AE61AD6924F0030605F00105EF
:101780000095334D06EB050CDCF80850A607360F24
:1017900007FA06F825EA0805DFF8B880404503D1C6
:1017A0004FF0000817E044E0DFF8AC80404502D17C
:1017B0004FF001080FE0DFF8A480404502D14FF060
:1017C000020808E0DFF89880404502D14FF0030896
:1017D00001E04FF0040808FA06F848EA0508CCF8DA
:1017E00008804D68D9F80060ED024D4601D51643DA
:1017F00000E096432E604D68DAF80060AD02554671
:1018000001D5164300E096432E604D68DBF800607A
:10181000AD035D4601D5164300E096432E604D684A
:10182000DEF80060ED03754601D5164300E09643EF
:101830002E60641C0D682A46E5407FF431AFBDE898
:10184000F88F000008040140000011100010024051
:101850000000014000080140000C01400010014060
:10186000001401408068084000D001207047C26821
:1018700021EA02030A4043EA0241016170470AB1CA
:10188000016170470904FBE7014880687047000068
:101890000000002070B5040025D094F83D0000251C
:1018A00020B984F83C50204600F0E0F9242084F868
:1018B0003D002068016821F0010101602068016895
:1018C00041F4004101602068016821F40041016099
:1018D00000F04AFB4D4A6168914201D84C4900E052
:1018E0004C49884201D2012070BD4B492368B0FBAE
:1018F000F1F15E6826F03F060E435E606368934236
:1019000006D94FF4967359434FF47A73B1FBF3F150
:101910002368491C1E6A26F03F063143196261683C
:10192000914210D84900401EB0FBF1F2521CC2F3A4
:101930000B02042A01D2042022E0B0FBF1F0401C8B
:10194000C0F30B001CE0A268F2B301EBC10303EB90
:101950000116431EB3FBF6F35B1C43F480431B05E7
:1019600049D092B301EBC10202EB0111401EB0FB62
:10197000F1F0401CC0F30B0040F4804040F4004004
:101980002168CA694CF6FF739A431043C861D4E9D1
:10199000071001432068026822F0C0021143016071
:1019A000D4E9030101432068826848F2FF339A4377
:1019B00011438160D4E9050108432168CA6822F017
:1019C000FF021043C86001E00EE016E020680168E5
:1019D00041F0010101602564202084F83D00256369
:1019E00084F83E50002070BD01EB4106431EB3FB5E
:1019F000F6F35B1CB3E70120C2E701EB4101401E97
:101A0000B0FBF1F0401CC0F30B00B7E7A08601006B
:101A100080841E0000093D0040420F002DE9FF4F69
:101A200083B00025DDE910799A4693460446DDF837
:101A300048800095FFF728FF064694F83D002028CF
:101A40007CD11923012285492046009601F0D2FD60
:101A50000028F5D194F83C0001286FD0012084F8CB
:101A60003C0020680168C90703D1016841F0010109
:101A700001602068016821F400610160222084F87F
:101A80003D00402084F83E0025646762A4F82A9057
:101A9000608D20857248E062CDE9008653465A4643
:101AA0002046049901F028FD00287DD1208DDFF823
:101AB000B491202768B1012814D002282068016859
:101AC0001ED041F480610160206841698069009006
:101AD000B6E02068416981690091016841F40071B4
:101AE0000160ADE02068016821F48061016072B698
:101AF0002068416981690091016841F400710AE040
:101B000041F40061016072B6206841698169009109
:101B1000016821F48061016062B691E0032868D811
:101B200001280CD0022843464FF0000249462046C7
:101B300000960FD001F05EFDB0BB10E08BE03246A6
:101B40004146204601F0FCFD70BB20680069616AD7
:101B500008706CE001F04EFD30BB72B634E02068D6
:101B6000016821F48061016072B620680069616AD1
:101B70000870606A401C6062208D401E2085608D68
:101B8000401E6085384846F2A8110068B0FBF1F0AD
:101B9000C0EBC00000EB80000090401E009008D019
:101BA00020684069C04300E029E040070CD5009858
:101BB000F3E744F8305F6773A573206940F02000B5
:101BC000206162B625731AE02068016841F4007153
:101BD000016020680069616A0870606A401C606288
:101BE000218D491E2185618D491E618562B621685E
:101BF0001BE032464146204601F0A2FD18B101200B
:101C000007B0BDE8F08F20680069616A0870606AFB
:101C1000401C6062218D491E2185618D491E6185B0
:101C200021684A69D24352070AD409690170606A7F
:101C3000401C6062208D401E2085608D401E6085A6
:101C4000208D00287FF46AAF84F83D7084F83E5000
:101C500084F83C50D4E70220D2E7000002001000D4
:101C60000000FFFF040001000C00002030B585B02B
:101C7000002100910191029103911E4D03681E4CB9
:101C8000122103221D48AB4216D1A36943F0080379
:101C9000A361A369039203F008030493C023CDE971
:101CA00000316946FFF7EEFCE06940F40010E061A6
:101CB000E06900F4001019E0114DAB4217D1A3699F
:101CC00043F00803A361A369039203F0080304939C
:101CD0004FF44063CDE900316946FFF7D3FCE0697A
:101CE00040F48000E061E06900F48000049005B0F9
:101CF00030BD00000054004000100240000C0140C4
:101D000000580040024881680278114481607047A1
:101D100000000020074810B5016841F01001016083
:101D2000032000F079F8032000F006F800F024F812
:101D3000002010BD0020024070B50D4D04464FF448
:101D40007A712878B1FBF0F00A490968B1FBF0F02C
:101D500000F02BFC48B9102C07D200222146501E5F
:101D600000F03AF800206C6070BD012070BD0000EA
:101D7000000000200C0000200E4808B5816941F0E9
:101D800001018161816901F001010091C16941F0A6
:101D90008051C161C06900F080500090052000F0C2
:101DA0003BF80548416821F0E06141F00071416075
:101DB00008BD00000010024000000140002809DBBF
:101DC00000F01F02012191404009800000F1E02055
:101DD000C0F8001170470000F0B40E4B1B680C46B1
:101DE000C3F30223C3F10705042D00D90425191DEF
:101DF000072901D2002300E0DB1E012606FA05F1C7
:101E0000491E214099409E40761E16403143F0BC49
:101E100003F066B90CED00E0064900F0070208681F
:101E20004FF6FF03184040EA0220034A10430860BF
:101E3000704700000CED00E00000FA052DE9F047C6
:101E40000F46050061D0434E306800F00700B842ED
:101E500009D2306820F0070038433060306800F065
:101E60000700B84251D128683B4C810712D5400782
:101E700003D5606840F4E06060602878000703D50F
:101E8000606840F4605060606068A96820F0F0000D
:101E9000084360602878C00728D06868012810D0FF
:101EA0002168022810D0890700292EDA616821F004
:101EB000030101436160FFF7E7FC804641F2883986
:101EC0000DE021688903EFE78901EDE7FFF7DCFC0E
:101ED000A0EB0801494502D90320BDE8F0876068FE
:101EE000696800F00C00B0EB810FEFD1306800F0B2
:101EF0000700B8420BD9306820F007003843306043
:101F0000306800F00700B84201D00120E5E72878EA
:101F1000400705D56068E96820F4E0600843606028
:101F20002878000706D56068296920F4605040EAE7
:101F3000C100606000F038F86168084AC1F303111D
:101F4000515CC8400649086006480068FFF7F4FE87
:101F50000020C2E70020024000100240FA7700088B
:101F60000C0000200400002004480549006849686E
:101F7000044AC1F30221515CC84070470C000020A4
:101F8000001002400A7800080448054900684968C2
:101F9000044AC1F3C221515CC84070470C000020C4
:101FA000001002400A7800080E4A51680E4801F0FD
:101FB0000C03042B11D0082B0FD10C48C1F3834321
:101FC000C903C05C0AD55168084AC1F34041921E5A
:101FD000515C054A5043B0FBF1F070470449484357
:101FE000704700000010024000127A00EA770008F3
:101FF00000093D002DE9F84F040070D02078C04D55
:10200000C00749D06868C0F38100012807D068681C
:10201000C0F38100022809D16868C00306D528688A
:10202000800339D560680028E7D035E06068B0F5F6
:10203000803F0BD010B1B0F5A02F11D0286820F44C
:1020400080302860286820F4802002E0286840F46E
:1020500080302860606890B1FFF716FC06460AE001
:10206000286840F480202860F0E700BFFFF70CFCF0
:10207000801B642873D828688003F7D50CE0FFF72D
:1020800003FC064605E000BFFFF7FEFB801B64284B
:10209000F0D828688003F7D420789A4E80074FF054
:1020A00001094FF0000839D5686810F00C0F07D00F
:1020B0006868C0F38100022809D16868C00306D4AB
:1020C0002868800714D52069012808D110E020690C
:1020D000B0B1C6F80090FFF7D7FB074605E00AE16C
:1020E000FFF7D2FBC01B0228C4D828688007F7D5A9
:1020F0002868616920F0F80040EAC10028600DE01E
:10210000C6F80080FFF7C0FB074604E0FFF7BCFB02
:10211000C01B022823D828688007F7D4207800073E
:102120002CD57948A169D9B1C0F80090FFF7ACFB74
:10213000074604E0FFF7A8FBC01B02280FD8686A17
:102140008007F7D571484FF4FA510068B0FBF1F001
:10215000009000BF0098411E0091FAD20EE080E08E
:10216000C0F80080FFF790FB074604E0FFF78CFB08
:10217000C01B022875D8686A8007F7D4207840070A
:1021800060D5E8690027C00008D4E86940F08050B5
:10219000E861E869012700F0805000905C48016820
:1021A000C90513D40168834641F480710160FFF7CB
:1021B0006BFB824606E000BFFFF766FBA0EB0A0060
:1021C00064284ED8DBF80000C005F5D5E06801288A
:1021D0000AD008B1052813D0286A20F0010028622F
:1021E000286A20F0040002E0286A40F0010028621A
:1021F000E06841F2883B98B1FFF746FB82460BE06E
:10220000286A40F004002862EEE700BFFFF73CFBBD
:10221000A0EB0A0159455AD8286A8007F6D50CE088
:10222000FFF732FB824605E0FFF72EFBA0EB0A0129
:1022300059454CD8286A8007F6D41FB1E86920F0C8
:102240008050E861E06988B36968C1F381010229BF
:1022500044D00228C6F8608004D0FFF715FB04467E
:1022600038E034E0FFF710FB074604E0FFF70CFB13
:10227000C01B02282BD828688001F7D4206AB0F54B
:10228000803F05D16868A16820F400300843686089
:10229000D4E908010843696821F4741108436860AF
:1022A000C6F86090FFF7F0FA044606E025E000BFAC
:1022B000FFF7EAFA001B022809D828688001F7D541
:1022C0001BE000BFFFF7E0FA001B022802D9032041
:1022D000BDE8F88F28688001F4D40EE00128F7D01B
:1022E0006868226A00F48031914204D1616A00F486
:1022F0007010884201D00120EAE70020E8E70000E2
:102300000010024000004242800442420C000020C3
:102310000070004070B5040009D0606A002540B12B
:1023200025616561A56294F8510040B10CE001207F
:1023300070BD6068B0F5827FF4D0E561F2E784F8A3
:102340005050204600F040F8022084F851002068E8
:10235000016821F040010160A088218900F48270A9
:1023600001F404410843A18901F400610843217C80
:1023700001F002010843217D01F001010843218B96
:1023800001F400710843217F01F03801084394F8FB
:10239000201001F080010843218D01F40051084311
:1023A00021680860A069042101EA104021684860A2
:1023B0002068C16921F40061C1616565012084F86C
:1023C0005100002070BD000030B585B0002400949D
:1023D00001940294039400681549884225D1154858
:1023E000C16941F48041C161C16901F48041049136
:1023F000816941F00801816180690F4D00F008009A
:1024000004904FF42040009002200190032003909C
:1024100069462846FFF736F94FF48040CDE90004BD
:10242000694628460294FFF72DF905B030BD00003B
:102430000038004000100240000C01402DE9F84F28
:10244000044690F850000026984615468A46012812
:102450000CD0012784F85070FFF716FA814694F8E3
:102460005100B346012804D002269AE00220BDE8BC
:10247000F88FBAF1000F6FD0002D6DD0032084F8D3
:102480005100C4F854B0C4F830A0A586E586C4F85D
:1024900038B0A4F83CB0A4F83EB0C4F844B0C4F8D6
:1024A00040B0A068B0F5004F09D12068016821F064
:1024B000400101602068016841F4804101602068AA
:1024C0000168490603D4016841F040010160E068F9
:1024D000B0F5006F606803D058B3012D29D049E0F2
:1024E00008B1012D1FD1206B21680088C86006E06B
:1024F00020688168890709D5216B0988C160206B34
:10250000801C2063E08E401EE0860CE0FFF7BCF9E3
:10251000A0EB0901414503D3B8F1FF3F03D006E02A
:10252000B8F1000F03D0E08E0028E1D125E00326AA
:1025300035E0206B21680078087306E02068816828
:1025400089070AD5216B09780173206B401C206331
:10255000E08E401EE0860DE01FE0FFF795F9A0EB4E
:102560000901414503D3B8F1FF3F03D0DFE7B8F1DC
:10257000000FDCD0E08E0028E0D14A4641462046DC
:1025800001F0BAFD08B120206065A06818B9206884
:10259000C16880680090606D08B1012601E084F890
:1025A000517084F850B0304661E710B5401EB0F16C
:1025B000807F01D3012010BD4FF0E02460610F2126
:1025C000601702F08DFD0020A0610720206100202F
:1025D00010BD70477047000070B590F83C20012A8C
:1025E00026D0012480F83C40022280F83D20036878
:1025F0005A689D6822F070060A6832435A600D4B93
:1026000002689A4208D0B2F1804F05D00A4B9A4234
:1026100002D00A4B9A4204D1496825F0800319433D
:10262000916080F83D40002180F83C10084670BD64
:10263000022070BD002C0140000400400008004052
:1026400010B5040003D094F83D0010B107E001205C
:1026500010BD002084F83C00204600F01FF8022046
:1026600084F83D00211D206802F036FA012084F82C
:10267000460084F83E0084F83F0084F8400084F867
:10268000410084F8420084F8430084F8440084F850
:10269000450084F83D00002010BD000008B500682A
:1026A0000B49884212D10B48816941F40061816174
:1026B0008069002200F40060009011461920FFF7A5
:1026C0008BFBBDE808401920FFF778BB08BD000070
:1026D000002C01400010024090F83D10012901D06B
:1026E00001207047022180F83D100168CA6842F05D
:1026F0000102CA6000680B49884208D0B0F1804FDF
:1027000005D00949884202D00849884204D181682D
:1027100001F00701062903D0016841F001010160C1
:1027200000207047002C01400004004000080040D9
:1027300070B5044690F83C000025012817D001260A
:1027400084F83C60022084F83D002068826822F012
:10275000770222F47F4282600868502838D00DDC6E
:1027600020284FD005DC90B3102811D14AE0022078
:1027700070BD302846D040280AD13BE060282FD0D9
:1027800070280DD0B0F5805F03D0B0F5005F12D097
:10279000012584F83D60002084F83C00284670BD87
:1027A000CB68D1E90121206802F04EFA20688168E7
:1027B00041F0770109E0CB68D1E90121206802F0FE
:1027C00043FA2068816841F480418160E1E719E0C3
:1027D000CA684968206802F0EBFA5021206806E0D8
:1027E000CA684968206802F0F4FA6021206802F0A3
:1027F00035FACEE7CA684968206802F0D9FA402164
:102800002068F4E7226801461046F0E770477047F9
:1028100070B50446006801694FF00005C943890797
:1028200015D4C168C943890711D4E91E016101208B
:102830002077206880698007204602D0FFF7E7FFF5
:1028400004E000F0D3F8204600F0C6F925772068B0
:102850000169C943490717D4C168C943490713D45B
:102860006FF004010161022020772068806910F474
:10287000407F204602D0FFF7CAFF04E000F0B6F820
:10288000204600F0A9F9257720680169C9430907A6
:1028900016D4C168C943090712D46FF00801016159
:1028A000042020772068C0698007204602D0FFF707
:1028B000AEFF04E000F09AF8204600F08DF925778D
:1028C00020680169C943C90617D4C168C943C9064C
:1028D00013D46FF010010161082020772068C069CF
:1028E00010F4407F204602D0FFF791FF04E000F093
:1028F0007DF8204600F070F9257720680169C9430A
:10290000C90708D1C168C943C90704D1891E01613B
:10291000204600F03DFB20680169C943090609D43F
:10292000C168C943090605D46FF0800101612046E2
:10293000FFF74FFE20680169C943490609D4C16801
:10294000C943490605D46FF040010161204600F0FB
:1029500029FB20680169C94389060BD4C168C943B2
:10296000890607D46FF0200101612046BDE8704060
:10297000FFF730BE70BD000000B585B000210091AA
:10298000019102910391026814480221B2F1804F33
:1029900014D0134B9A420FD1826942F0080282612F
:1029A0008069009100F008000191CDE903100D4805
:1029B000694600BFFEF766FE05B000BD826942F0C1
:1029C000040282618069039100F0040004900120F8
:1029D000CDE9000169460448ECE700000010024020
:1029E00000040040000C014000080140704770B531
:1029F000044690F83C0000260D4601280FD0012027
:102A000084F83C006AB1042A1DD0082A2FD00C2A71
:102A10003FD00126002084F83C00304670BD0220E3
:102A200070BD206802F022F92068816941F0080138
:102A300081612068816921F00401816120688169D8
:102A40002A69114311E0206802F038F92068816991
:102A500041F4006181612068816921F480618161B4
:102A6000206881692A6941EA02218161D2E72068F0
:102A700002F050F92068C16941F00801C161206885
:102A8000C16921F00401C1612068C1692A6911434B
:102A900011E0206802F06AF92068C16941F4006120
:102AA000C1612068C16921F48061C1612068C16988
:102AB0002A6941EA0221C161ACE710B5040003D0E4
:102AC00094F83D0010B107E0012010BD002084F80B
:102AD0003C00204600F01EF8022084F83D00211D35
:102AE000206801F0F9FF012084F8460084F83E00D8
:102AF00084F83F0084F8400084F8410084F84200E4
:102B000084F8430084F8440084F8450084F83D00CC
:102B1000002010BDF8B510210546076800202A4C9A
:102B200080220B018E01B7F1804F28D0DFF89CC0C6
:102B3000674547D1E76947F00207E761E469244F39
:102B400004F002040094234C04F1080C8CE84D00BE
:102B5000A061E061C4E900712046FEF71BFD08B1E9
:102B6000FEF7A6FB2C632C62002211461D20656235
:102B7000FFF732F91D20BDE8F840FFF71FB9E769FC
:102B800047F00107E761E469114F04F00104009484
:102B9000104C2837443C04F1080C8CE84D00A0612F
:102BA000E061C4E900712046FEF7F4FC08B1FEF7CD
:102BB0007FFB6C62002211461C206562FFF70CF956
:102BC0001C20D8E7F8BD00000010024000040040BF
:102BD000300002406C0300202DE9F05F4549DFF82A
:102BE00018B10124454D0026454F82464FF0FF386D
:102BF00088423CD1D946D9E9000100F067F999F83B
:102C00004403032801D0287850B13B4801F0E0FE8E
:102C10003C483D49008808802878012803D01CE002
:102C20003A48047023E03E8099F85403D9F84813D9
:102C3000C00701D0012000E0404641433448016014
:102C40003448D0F8481390F85403C00701D001204D
:102C500000E0404641433048016030480178012996
:102C600005D12F493C800A88521C0A8006702D49E4
:102C70008A4518D1DFF89C90D9E9000100F026F9C7
:102C800099F84403032801D0287850B1214801F075
:102C90009FFE25482549008808802878012804D00F
:102CA0001CE023480470BDE8F09F3E809BF854036D
:102CB000DBF84813C00701D0012000E04046414343
:102CC0001348016099F85403D9F84813C00701D09C
:102CD000012000E0404641430F4801600F48017861
:102CE0000129E0D10E493C800A88521C0A800670F6
:102CF000D9E70000E0020020180D00203601002076
:102D00002E010020FC000020F8000020F000002030
:102D100038010020701000203C01002040010020FC
:102D2000F200002098020020FE000020FA0000209F
:102D3000F1000020704700002DE9F04117460D001A
:102D400004464FF000060CD0042D11D0082D16D0EB
:102D500094F84100022819D094F84100012818D0B5
:102D60007CE094F83E00022810D094F83E00F5E78D
:102D700094F83F00022809D094F83F00EEE794F859
:102D80004000022802D094F84000E7E70220BDE8A6
:102D9000F081002F62D0002B60D04649464ADFF810
:102DA0001CC102204DB1042D18D0082D27D084F865
:102DB00041000C2D44D0012679E084F83E00606A81
:102DC0008162606A3946C262606AC0F830C02268B7
:102DD000606A2832FEF70CFC88BB21E084F83F00D3
:102DE000A06A8162A06A3946C262A06AC0F830C097
:102DF0002268A06A3832FEF7FBFB00BB15E084F8BE
:102E00004000E06A8162E06A3946C262E06AC0F866
:102E100030C02268E06A3C32FEF7EAFB78B909E08C
:102E20002068C16841F400711EE02068C16841F467
:102E3000806119E02068C16841F4006114E00DE090
:102E4000206B8162206B3946C262206BC0F830C0B3
:102E50002268206B2832FEF7CBFB08B1012096E7F1
:102E60002068C16841F48051C16001222946206870
:102E700001F068FE12492068884203D1426C42F496
:102E8000004242642068884208D0B0F1804F05D0EB
:102E90000C49884202D00C49884204D1816801F073
:102EA0000701062903D0016841F0010101603046A5
:102EB0006DE700005F4B0008BD4B0008F54B0008B4
:102EC000002C0140000400400008004070B50D00D7
:102ED00004464FF0000607D0042D0CD0082D11D069
:102EE0000C2D16D0012645E02068C16821F4007140
:102EF000C160606A13E02068C16821F48061C1602C
:102F0000A06A0CE02068C16821F40061C160E06A39
:102F100005E02068C16821F48051C160206BFEF794
:102F200043FA00222946206801F00CFE174B41F2BB
:102F3000111120688A10984209D1036A0B4206D108
:102F4000036A134203D1436C23F4004343642068B3
:102F5000036A0B4206D1016A114203D1016821F0D4
:102F60000101016001203DB1042D08D0082D09D0D8
:102F700084F84100304670BD84F83E00FAE784F8DA
:102F80003F00F7E784F84000F4E70000002C014020
:102F900000680349884201D103F0AEBC70470000CD
:102FA000002C01407047704770470000F8B5016879
:102FB00004460868CA684B6910F00F0F4FF000050F
:102FC00059D003F0010602F49077374365D0C1076A
:102FD00005D0D10503D5616C41F001016164410761
:102FE00005D5D90703D0616C41F002016164810706
:102FF00005D5D90703D0616C41F004016164010774
:1030000007D502F02001314303D0616C41F0080183
:103010006164616C00293AD0800604D5900602D51F
:10302000204601F017FF20684069616CC0F38010F2
:10303000090700D460B3204601F0E5FE206840692E
:10304000400621D52068143050E8001F21F04001CF
:1030500040E80012002AF5D1E06BA8B16D49416348
:10306000E06BFEF7A1F9002811D0E06B416B01B0D5
:10307000BDE8F040084783060FD593060DD52046DE
:10308000BDE8F84001F0E6BE2046FFF78DFFF8BD31
:103090002046FFF789FF6564F8BD266B2023012ECB
:1030A0007CD1C6067AD5D60678D5086848680090DF
:1030B00048694FF00206400640D5E16B0868406859
:1030C0000004000CE8D0A28D8242E5D9E085886931
:1030D00020282DD020680C3050E8001F21F480718A
:1030E00040E80012002AF5D12068143050E8001F93
:1030F00021F0010140E80012002AF5D120681430C7
:1031000050E8001F21F0400140E80012002AF5D1EC
:1031100084F84230256320680C3050E8001F21F00D
:10312000100140E80012002AF5D1E06BFEF718F913
:103130006663A08DE18D401A81B22AE0A08DE18DF9
:10314000401A81B2E08D0028A6D00029A4D02268C0
:103150000C3252E8000F20F4907042E80007002F74
:10316000F5D12068143050E8002F22F0010240E829
:103170000027002FF5D184F84230256320680C30F9
:1031800050E8002F22F0100240E80023002BF5D178
:1031900066632046FFF707FFF8BDFFE705062BD55E
:1031A000150629D594F841002128F5D1A068B0F57D
:1031B000805F01D12069B0B1206A411C2162216881
:1031C00000784860E08C401E0004000CE084E3D1ED
:1031D0002068C16821F08001C1602068C16841F0A9
:1031E0004001C160D8E7206A0088C0F30800486049
:1031F000206A801C2062E5E74006CDD55006CBD57D
:10320000CA68204622F04002CA6084F8413000F0CB
:103210005AF9C1E7F74D000870B5040004D094F8DE
:103220004100002510B106E0012070BD84F8405037
:10323000204600F023F8242084F841002068C1686B
:1032400021F40051C160204601F066FE206801694A
:1032500021F4904101612068416921F02A01416116
:103260002068C16841F40051C1606564202084F881
:10327000410084F842006563002070BDF0B585B060
:10328000002400940194029403940646344F03688A
:10329000344902220320344DBB4221D18B6943F4CF
:1032A00080438B618B6903F4804304938B6943F003
:1032B00004038B618969039001F0040104911102F8
:1032C000CDE9001269462846FEF7DCF92815CDE95C
:1032D0000004694628460294FEF7D4F905B0F0BD13
:1032E000224FBB42FAD1CB6943F40033CB61CB69A7
:1032F00003F4003304938B6943F004038B61896901
:10330000039001F0040104910421CDE90012694603
:103310002846FEF7B7F90820CDE90004694628469B
:103320000294FEF7AFF9134D1148C5E9000480205F
:10333000C5E902402C616C61AC612846EC61FEF786
:1033400029F908B1FDF7B4FFF563002211462620E4
:103350006E62FEF741FD2620FEF730FDBEE700005D
:1033600000380140001002400008014000440040C5
:103370006C0002404004002090F84230202B01D025
:103380000220704721B11AB10023036301F020BE6F
:10339000012070472DE9F0411C4900680968884206
:1033A00032D11B480078012827D11A481A490278DF
:1033B0001A4800F041FF00B3174F194D002400BF19
:1033C00007EB0416D6E90001FDF7D4F925F824002F
:1033D000D6E90201FDF7CEF905EB8401641CE4B2E5
:1033E0004880052CECD30F490120487000F044FEC2
:1033F0004FF400610C48FEF73AFABDE8F0410122B3
:1034000004490248FFF7B8BFBDE8F081F803002087
:10341000100000203400002038000020580B00204D
:10342000F40C002014000020000801402DE9F843AE
:10343000044690F841001F4616460D46202802D04B
:103440000220BDE8F8837DB176B1002060642120C0
:1034500084F84100FEF718FAA6848046E684A06846
:10346000B0F5805F02D003E00120EAE7206910B1E7
:103470002E4600250EE000260CE08021204601F0BB
:10348000C2FDA0B9AEB116F8010B21684860E08C0E
:10349000401EE084E08C43464FF000020097002875
:1034A000EBD14FF04001204601F0ADFD30B10320DB
:1034B000C7E735F8020BC0F30800E6E7202084F8E0
:1034C00041000020BDE77047FEE701684A69D2432A
:1034D00052050FD46FF480624A61002140F8301F1A
:1034E000202242738173026942F004020261017377
:1034F00001207047002070472DE9F84F044600680E
:1035000089460B9D01689846174641F48061016029
:103510002068016841F48071016000954FF0011B43
:103520000022594620460A9B00F064F84FF4007AC6
:1035300040B120680068C00501D5C4F840A0032050
:10354000BDE8F88F216809F0FE0008612B46284984
:1035500020460A9A00F096F8F0BB2068416980691D
:1035600000902A4620460A9900F022F940B1206CCA
:1035700004283AD12068016841F40071016034E008
:10358000FEB2B8F1010F09D02168380A08612A4655
:1035900020460A9900F00CF90028E8D1206806615D
:1035A0002A4620460A9900F003F90028DFD1206856
:1035B000016841F48071016000950022594620465F
:1035C0000A9B00F017F80028B3D1216809F0FF002A
:1035D00040F00100086100E007E02B460449204666
:1035E0000A9A00F04FF80028AAD00120A8E70000AE
:1035F000020001002DE9F047984617460D460446A3
:10360000C1F30746DDF820902AE000BFB8F1FF3F84
:1036100026D0FEF739F9A0EB0901414502D8B8F1EF
:10362000000F1DD12068012E16D0806925EA000008
:103630000004000C12D00020B84211D1002044F840
:10364000300F20216173A073216941F020012161B5
:1036500020730120BDE8F0874069E7E70120EBE730
:103660002068012E0AD0806925EA00000004000CC1
:1036700006D00020B842C9D00020EBE74069F3E74C
:103680000120F7E72DE9F047984616460D46044617
:103690004FF000094FF0200AC1F3074723E02068EC
:1036A0004069C043400515D42068016841F40071A9
:1036B000016021686FF480604861C4F8309084F83C
:1036C0003DA084F83E90216C41F00401216484F80F
:1036D0003C9021E0701C06D0FEF7D6F8A0EB080065
:1036E000B04203D816B1012F1FD021E02068012F6E
:1036F00015D0806925EA00000004000C18D000BF36
:1037000044F8309F84F80DA084F80E90216941F0B0
:103710002001216184F80C900120BDE8F087406908
:1037200025EA00000004000CEAD12068406901E0AD
:103730002068806925EA00000004000CAFD1ECE7A6
:103740002DE9F041002590460E460446202728E04A
:103750004069C043C0060CD454F8301B6FF0100011
:10376000486144F810596777A577206A2062257769
:1037700014E0FEF789F8A0EB0800B04200D886B943
:1037800020684069C04340060BD544F8305F67733A
:10379000A573206940F02000206125730120BDE859
:1037A000F08120684169C9434906D1D40020F6E779
:1037B00070B516460D4604461EE02046FFF785FE0E
:1037C00008B1012070BD681C16D0FEF75DF8801BA3
:1037D000A84200D885B920684069C04300060BD5CF
:1037E000002044F8300F20216173A073216941F05B
:1037F000200121612073E4E720684069C04300068E
:10380000DBD4002070BD000010B51A4886B00078E7
:1038100000282DD018480DF1080CB0F90810B0F9A7
:103820000E40B0F90C30B0F90A208CE81E00B0F957
:103830000620B0F90410CDE90012B0F90230B0F959
:1038400000200EA1184801F01AFC1848B0F9041025
:10385000B0F90A40B0F90830B0F906208DE81E0032
:10386000B0F90230B0F9002011A10F4801F007FCB7
:1038700006B010BD15000020F40C0020706F7369B5
:1038800074696F6E3A09092825642C256429282556
:10389000642C2564292825642C2564292825642C7A
:1038A0002564290A00000000B00300201E0100204A
:1038B0006E65775F706F736974696F6E3A282564FF
:1038C0002C2564292825642C2564292825642C2589
:1038D00064292825642C2564290A0000114808B5AC
:1038E000416941F0010141614069002200F001009D
:1038F000009011460D20FEF76FFA0D20FEF75EFADC
:10390000002211460F20FEF767FA0F20FEF756FA45
:10391000002211461020FEF75FFABDE80840102093
:10392000FEF74CBA001002402DE9F04186B00024A9
:103930003A480094019402940394816941F0100183
:103940008161816901F010010491816941F02001D8
:103950008161816901F020010491816941F00401D4
:103960008161816901F004010491816941F00801DC
:10397000816180692A4F00F008000490002249F616
:10398000D2113846FDF77BFFDFF89880002241F224
:1039900009014046FDF773FF4FF4C04001258DE853
:1039A000310069462048FDF76DFE822002268DE831
:1039B0006100694638460396FDF764FE49F65010EB
:1039C000CDE90005CDE9024669463846FDF75AFEC5
:1039D00020208DE8310069463846FDF753FE092066
:1039E000CDE90005CDE9024669464046FDF74AFEAD
:1039F0002803CDE900050320CDE902406946404691
:103A0000FDF740FE4FF440708DE8310069464046B6
:103A1000FDF738FE06B0BDE8F0810000001002405E
:103A200000080140000C0140001001400D4810B595
:103A30000B4901600C49416000214FF480428160D4
:103A4000C0E9031241618161C1610162FDF722FF9A
:103A5000002803D0BDE81040FDF72ABC10BD0000CF
:103A60000054004050010020A08601000D4810B510
:103A70000B4901600C49416000214FF48042816094
:103A8000C0E9031241618161C1610162FDF702FF7A
:103A9000002803D0BDE81040FDF70ABC10BD0000AF
:103AA00000580040A4010020A0860100104810B575
:103AB0000E4901604FF48271416000218160C16054
:103AC0004FF400720161C0E905121822C0E9072114
:103AD000416281620A21C162FEF71CFC002803D00A
:103AE000BDE81040FDF7E4BB10BD00000038004009
:103AF000F801002010B586B0002418480094019405
:103B00000294039404941449059401604721C0E988
:103B1000011440F2E731C0E903148021C0E90541F6
:103B2000FEF78EFD08B1FDF7C3FB4FF48050009007
:103B300069460A48FEF7FCFD08B1FDF7B9FB04949D
:103B400004A906480594FEF747FD002801D0FDF7BB
:103B5000AFFB06B010BD0000002C01405002002059
:103B600010B58AB0002407941C2168460894FCF71D
:103B700023FB16484FF0804101604721C0E9011442
:103B800040F2E731C0E903148461FEF796FF08B103
:103B9000FDF78EFB079407A90C480894FEF71CFD5F
:103BA00008B1FDF785FB6020CDE9000402940022F6
:103BB000694606480494FEF71AFF08B1FDF778FB42
:103BC0000248FEF7D9FE0AB010BD0000980200209E
:103BD00010B58AB0002407941C2168460894FCF7AD
:103BE000EBFA1648144901604721C0E9011440F27C
:103BF000E731C0E903148461FEF75FFF08B1FDF708
:103C000057FB079407A90D480894FEF7E5FC08B197
:103C1000FDF74EFB6020CDE9000402940C226946BA
:103C200006480494FEF7E3FE08B1FDF741FB0348A4
:103C3000FEF7A2FE0AB010BD00040040E002002022
:103C40000C4810B50A4901604FF41651416000213B
:103C500081600C22C160C0E904128161C161FFF77B
:103C6000DBFA002803D0BDE81040FDF721BB10BDF2
:103C700000380140B00300200C4810B50A4901602B
:103C80004FF416514160002181600C22C160C0E9EF
:103C900004128161C161FFF7BFFA002803D0BDE8BB
:103CA0001040FDF705BB10BD00440040F8030020A4
:103CB000FEE7FEE72DE9FF411C46DDE90A561746FF
:103CC00001AB6A4600F090FE03AB02AA21463846DB
:103CD00000F08AFE00990298FCF7D2FA0521FCF761
:103CE00045FB0B4C2146FCF703FBFCF716FD288037
:103CF00001990398FCF7C4FA0521FCF737FB21462C
:103D0000FCF7F6FAFCF709FD3080BDE8FF81000002
:103D10006666E63F2DE9FC47074614460E464FF01F
:103D20000008684600F042F8DDE9000118B1B26A07
:103D300006EB820210622E2C01D10122B262B2681F
:103D40001278A24203D072681278A24225D1706A1A
:103D5000FCF7D6FC04460D46DFF84890DFF848A093
:103D600007E000224B4620462946FCF724FC044687
:103D70000D4600225346FCF761FDF2D9306AFCF78C
:103D8000BFFC22462B46FCF7FDFAC6F81C80C6F89D
:103D90002080C6F82480C6F82880C7E90001BDE865
:103DA000FC870000000024400000F03F30B5CC69E3
:103DB00000230CB92D2A0BD0A2F13005092D0BD808
:103DC0004C6A04EB840402EB4402303A4A620DE090
:103DD0004FF0FF32CA6109E08D682D78954208D016
:103DE0004D682D78954204D02E2A02D0036043609E
:103DF00030BD4A6A04B152424B62CB61C0E9002334
:103E000030BD000070B50446806A154648B921B936
:103E1000402002F013FC010013D021620120E16177
:103E2000A062A0680078A84203D060680078A84229
:103E30000AD1D4E90720002111702162A162E16159
:103E400070BD0748006870BDE06938B1216A411A49
:103E5000402903DA0570E069401CE061002070BD74
:103E6000DC000020704700002DE9F04F85B00F46C0
:103E7000064600240025601C049000F00300039017
:103E800006EB8000029004EB840006EB840B0190AB
:103E9000039836F9248036F92010A1EB0800FCF7CE
:103EA00010FC81462846FCF715FC2049FCF720FA57
:103EB00049460090FCF7EAF981464046FCF701FCD0
:103EC0004946FCF78BF9FCF728FC0146019805EB05
:103ED000400A27F82A100298BBF90280B0F90210B4
:103EE000A1EB0800FCF7EDFB01460098FCF7CEF9CA
:103EF00081464046FCF7E5FB4946FCF76FF9FCF7C5
:103F00000CFC014607EB8A006D1CEDB241800A2DC6
:103F1000BED30498C4B2042CACD3308827F8A00FC9
:103F20007088788005B0BDE8F08F00000000204167
:103F30002DE9FF474748484C0178A08A042908D159
:103F4000B0F5167F05D1B4F90210012901DA40F667
:103F5000B830E082B4F91070DFF80081404EDFF82D
:103F600004913FB380B2FCF7B5FB4146FCF7C0F9C2
:103F700005463846FCF7A5FB02F0D8FB2946FCF7BE
:103F8000B7F98021CDE90010CDE902064B460C229D
:103F90003549364800F053FCB4F9100000280CDD18
:103FA000FCF78FFB02F0C2FBFCF7D0FB00230146BD
:103FB0001A460CE0A08920810CE00BDAFCF781FBAB
:103FC00002F0B4FBFCF7C2FB0023014601222748A4
:103FD00000F0CAF9B4F912503DB3E08AFCF77AFB5D
:103FE0004146FCF785F907462846FCF76AFB02F0D4
:103FF0009DFB3946FCF77CF90221CDE90010CDE9A3
:1040000002064B4600221A491A4800F018FCB4F97F
:10401000120000280DDDFCF754FB02F087FBFCF7D3
:1040200095FB0023014601220DE0E0896081BDE897
:10403000FF87FCDAFCF745FB02F078FBFCF786FB18
:10404000002301461A4604B00A48BDE8F04700F0D4
:104050008BB9000010000020F000002000007A441E
:104060000000C84200080140E0020020180D0020B6
:1040700098020020701000202DE9F0411A4C1B4DD1
:10408000208AA0F2311002B2AA80608AB23801B24E
:10409000E980002034F820309B1A24F8203004EB0B
:1040A0008003401C5E88761A5E800428F2DB10488C
:1040B0000078012816D1288BFCF722FB06460F4614
:1040C000B4F90000B4F90210401AFCF708FB002212
:1040D000084BFCF770FA32463B46FCF7FAF9FCF75E
:1040E00068FB6883BDE8F081F40C0020F00000203C
:1040F0001000002000407F4038B50B460092044677
:104100000022802100F008F8002804D0606D40F003
:1041100020006065032038BD2DE9F8431E46914616
:1041200088460446089DFDF7AFFB401B351AFDF796
:10413000ABFB074625480068C0F3CB30684338E046
:10414000701C37D0FDF7A0FBC01BA84203D215B1ED
:10415000009860B32CE02068416821F0E0014160E4
:104160006068B0F5827F0BD1A068B0F5004F02D037
:10417000B0F5806F04D12068016821F04001016032
:10418000A06AB0F5005F09D12068016821F40051F0
:1041900001602068016841F400510160012084F849
:1041A0005100002084F850000320BDE8F88300256A
:1041B000401E00902068816838EA010004D0002188
:1041C0004945BDD10020F0E70121F9E70C000020AE
:1041D0002DE9F0410D00DDF818801E461746044613
:1041E000056022D02846FBF7F2FF00BF84F83900B3
:1041F000A760E7B13846FBF7EAFF00BF84F83B0051
:104200006660B6B13046FBF7E2FF00BF84F83A00C3
:10421000C4F80C80C4E904850020A06260622062BA
:10422000E06184F83800BDE8F0810020DEE700207E
:10423000E4E70020EAE700002DE9FC47044690F897
:1042400038000F4692464FF001094FF0000810B1B8
:10425000012811D111E0CDF8008094F8392053469F
:1042600020462168FCF7E4FF002877D06068606191
:10427000A068A06184F8389070E020690178642912
:104280000BD003DC11B3202904D128E066290ED01D
:1042900073291CD03248806820E021466846FFF729
:1042A00085FDDDE9000188B1C4E90C0117E0214674
:1042B0006846FFF72FFDDDE9005100220E46284633
:1042C0001346FCF7A3FA0AD0C4E90C5607E0E168EC
:1042D000401A57F830102046FFF794FD2063CDF8C0
:1042E0000080454694F83A20534620466168FCF722
:1042F0009FFFA0B1606860612169087820280BD019
:1043000018B3E068081AD4E90C1207EBC000C0E942
:10431000001220690078C0B12069401C2061CDF8EE
:10432000009094F83B2053462046A168FCF780FF9C
:10433000A0B120690178202907D0E168401AD4E9AA
:104340000C1207EBC000C0E9001220686061E06851
:10435000206184F838500120BDE8FC870020FBE78D
:10436000DC0000207047000010B5044600F0DCFAC5
:10437000054A01200549944200D10870044A94423C
:1043800000D1487010BD0000180D0020F000002082
:104390007010002010B504460020C4F84C0394F8B7
:1043A000440330B1012808D002280AD04FF0FF3072
:1043B00010BD204600F0DAF806E0204600F072F961
:1043C00002E0204600F0AEF9C4F84C0310BDD0F86E
:1043D0004C03704790F8541321F0100280F85423D6
:1043E000D0E9D213C91AC0F8481307D0D0F8503317
:1043F000994208D8910703D5022102E0032100E089
:10440000012180F8441370472DE9F05F48480025EA
:10441000484C90F8450300287ED1474890F8450362
:1044200000287FD1A07800287FD0DFF810A1DAF82B
:104430000000FCF7D7F94FF06632414BFCF746F825
:10444000FCF714FA20F000483E4EB8F17E5F0BDD19
:104450000521FBF78BFF3C49FBF74AFFFCF75DF9B1
:104460003080FFF765FD00E03580DFF8E0B0DBF875
:104470000000FCF7B7F9364A364BFCF727F8FCF793
:10448000F5F920F00047DFF8D090B7F17E5F0CDD42
:104490000521FBF76BFF3149FBF72AFFFCF73DF9DC
:1044A000A9F80000FFF744FD00E035804FF07E5191
:1044B000884537DC8F4235DCA078401EA070DAF8E2
:1044C0000000FCF78FF94FF066321D4BFBF7FEFF43
:1044D0000522FCF7DFF8DFF888804FF040473A46C6
:1044E0004346FCF768F8FCF745F93080DBF800003C
:1044F000FCF778F9164A174BFBF7E8FF0522FCF7A3
:10450000C9F83A464346FCF756F8FCF733F9A9F8E0
:104510000000FFF70DFD01E004E006E01148058012
:1045200011480580A078002800D16570BDE8F09F93
:10453000180D002010000020701000202000002026
:1045400066665440000100206666E63F1C000020BD
:104550009A99999999D97140020100206666E6BF3F
:10456000CCCCFC3FF8000020FA0000202DE9F84FE9
:10457000044690F8440310B10020BDE8F88FD4F849
:104580004863C82E00D9C82694F85403000702D502
:1045900004F5DA7001E004F1240007460025DFF895
:1045A000F8904FF07E5A42E0B54245DA3B48216A26
:1045B000FBF79EFEE169FBF711FE8046E0614FF0DC
:1045C000FF316069FBF7D2FEDFF8D4B000905946A6
:1045D0004046FBF75BFEA169FBF78AFE5946FBF7F5
:1045E00052FE01F09FFD80464FF0FF316069FBF7FE
:1045F000BDFE4146FBF74AFE2169FBF7EFFD00993E
:10460000FBF7ECFD8046206220680068C06A401C11
:10461000B9FBF0F0FCF75EF84146FBF769FE514646
:10462000FBF72EFEFCF792F827F815006D1CD4E975
:104630000610FCF737F9B7D994F85403C110491C98
:1046400061F3C30084F85403B54205DB40F0100069
:1046500084F85403304690E7012084F844036069ED
:104660002062804620680068C06A401CB9FBF0F0F8
:10467000FCF730F84146FBF73BFE5146FBF700FEE6
:10468000FCF764F880B202E027F815006D1CB54213
:10469000FADB94F85403D9E700A24A0400007A44F4
:1046A000DB0F494070B5044690F84403012801D05F
:1046B000002070BD94F85403000702D504F5DA75A4
:1046C00001E004F1240520680068C06A1449401C18
:1046D000B1FBF0F0FBF7FEFF216AFBF709FE4FF09C
:1046E0007E51FBF7CDFDFCF731F8D4F8481382B2C8
:1046F000C82902D9C821002001E0002002E025F8E5
:104700001020401C8842FADB94F85403C210521C5B
:1047100062F3C30040F0100084F85403084670BDF3
:1047200000A24A042DE9F05F044690F844030228F1
:1047300002D00020BDE8F09FD4F84863C82E00D90D
:10474000C82694F85403000702D504F5DA7001E096
:1047500004F1240007460025DFF8C8904FF07E5B87
:104760002DE0B54230DA3048216AFBF7C1FDE1693E
:10477000FBF789FD8046E061D4E904A05146FBF7D0
:104780007FFDA169FBF7B4FD4146FBF77FFD514674
:10479000FBF724FD8046206220680068C06A401C48
:1047A000B9FBF0F0FBF796FF4146FBF7A1FD594638
:1047B000FBF766FDFBF7CAFF27F815006D1C2169A2
:1047C000206AFCF779F8CCD394F85403C110491C43
:1047D00061F3C30084F85403B54205DB40F01000D8
:1047E00084F854033046A5E720692062804620689B
:1047F0000068C06A401CB9FBF0F0FBF76BFF414654
:10480000FBF776FD5946FBF73BFDFBF79FFF80B2B8
:1048100003E000BF27F815006D1CB542FADB94F8E1
:104820005403DBE700A24A0400007A4490F85413D2
:10483000090701D52430704700F5DA7070472DE97B
:10484000F04708AD044695E8410384E80E00A081D6
:104850004FF0FF3532B1042A0FD0082A18D00C2AA5
:104860002BD120E00F68F86AFBF734FF2946FBF7ED
:104870007DFDFBF76BFF78631FE00F68F86AFBF7BD
:1048800029FF2946FBF772FDFBF760FFB86314E0D0
:104890000F68F86AFBF71EFF2946FBF767FDFBF779
:1048A00055FFF86309E00F68F86AFBF713FF294624
:1048B000FBF75CFDFBF74AFF38640025C4E9069569
:1048C0002562C4E904684FF4C876314604F1240037
:1048D000FBF772FC314604F5DA70FBF76DFC032040
:1048E00084F8440384F84553C4F84853C4F84C533F
:1048F000C4F8505394F8540320F0180040F002001C
:1049000084F85403BDE8F08790F85403C0F3001016
:10491000704790F8451311B14FF0FF3070470121F7
:1049200080F84513002070472DE9F04791460F4667
:104930000446FFF7EEFFC4F8487394F85453D4F8D4
:10494000188063F3410541462069FBF79FFCDFF8BF
:104950007CA05146FBF79AFC06464FF0FF31606998
:10496000FBF704FD4146FBF791FC5146FBF78EFC3B
:104970003146FBF733FCFBF7E9FE0026C4E9D360C0
:1049800069F3000584F85453A1894A46A068FCF7EE
:1049900076FFA06910F0FF4F4FF001000BD0D4F864
:1049A0005013B94209D92169216284F84403204691
:1049B000FFF778FE06E06169F6E784F84463204675
:1049C000FFF7D4FDC4F84C03BDE8F0876F12833ABB
:1049D00090F84513012902D04FF0FF3070470021B5
:1049E00080F84513084670472DE9F04706461548FC
:1049F0001D46904689460088FBF76CFE044630460B
:104A0000FBF75FFE2146FBF773FC01F0CDFA0E4E7B
:104A10003146FBF73BFC0D4F3946FBF769FCC8F804
:104A200000004846FBF74DFE2146FBF761FC01F014
:104A3000BBFA3146FBF72AFC3946FBF759FC2860E4
:104A4000BDE8F0870A01002000003443DB0F494035
:104A5000FDF758B930B58FB028216846FBF7ACFB9D
:104A600014210AA8FBF7A8FB01210804CDE90010D6
:104A70000024029402250491CDE907504FF4E01080
:104A800009906846FDF7B6FA08B172B6FEE70F2046
:104A9000CDE90A054FF48060CDE90C4002210AA857
:104AA0000E94FDF7CBF9002801D072B6FEE70FB0E7
:104AB00030BD70470148FDF7ABBE0000500200203A
:104AC0000148FDF7A5BE0000980200200148FDF74F
:104AD0009FBE0000E0020020F0B50268164B174CA4
:104AE000174D4FF08047984205D0B84203D0A042FE
:104AF00001D0A84203D122F070064A68324398429E
:104B000005D0B84203D0A04201D0A84203D122F47C
:104B10004074CA6822434C6922F08002224302603A
:104B20008A68C2620A688262984201D10969016397
:104B300001214161F0BD0000002C01400004004053
:104B40000008004010B501F01F030121046A9940DC
:104B50008C430462016A9A401143016210BD10B592
:104B6000446A0121626A824205D121778069F8B9DD
:104B700084F83E101CE0A26A824206D1022222770B
:104B80008069A8B984F83F1012E0E26A824206D137
:104B900004222277806958B984F8401008E0226B1B
:104BA000824205D108222277806908B984F8411031
:104BB0002046FEF711F80020207710BD10B5446A9A
:104BC000616A814201D101200DE0A16A814201D1D7
:104BD000022008E0E16A814201D1042003E0216B58
:104BE000814201D1082020772046FEF7A3F800205B
:104BF000207710BD10B5446A0121626A824203D158
:104C0000217784F83E1019E0A26A824204D1022082
:104C1000207784F83F1011E0E26A824204D1042038
:104C2000207784F8401009E0226B824204D10820EA
:104C3000207784F8411001E084F83D102046FDF70C
:104C4000E5FD0020207710BD10B5846842EA0322FC
:104C500024F47F440A432243826010BD826822F01C
:104C600070020A4342F007018160704730B5036A61
:104C7000026A22F0010202624268846924F073052C
:104C80000C682C4323F002058B682B430A4DA84285
:104C90000BD123F00805CB6822F440722B434D69F9
:104CA00023F0040315438A692A43426084614968FA
:104CB0004163036230BD0000002C014030B5026A40
:104CC000036A23F010030362436884690D6824F4C7
:104CD000E64444EA05248D6822F0200242EA0512E7
:104CE0000B4DA8420ED1CD6822F0800242EA051297
:104CF0004D6923F4406343EA85038D6922F0400245
:104D000043EA85034360846149688163026230BD80
:104D1000002C014030B5036A026A22F480720262FC
:104D20004268C46923F4007324F073050C682C43B3
:104D30008D6843EA05230C4DA8420ED1CD6823F4BB
:104D4000006343EA05234D6922F4405242EA05120A
:104D50008D6923F4806342EA05124260C4614968A8
:104D6000C163036230BD0000002C014030B5046A0D
:104D7000026A22F4805202624268C3690D6823F419
:104D8000E64343EA05238D6824F4005444EA0534DD
:104D9000064DA84204D14D6922F4804242EA8512B0
:104DA0004260C36149680164046230BD002C014067
:104DB00010B5036A046A24F001040462846924F0D3
:104DC000F00444EA021423F00A020A4384610262F6
:104DD00010BD10B5036A046A24F0100404628469EB
:104DE00023F0A00324F4704444EA023243EA0111A0
:104DF0008261016210BD10B5406A0021C185C18485
:104E0000FEF7D2F810BD01680C3151E8002F22F4F2
:104E1000907241E80023002BF5D10168143151E86C
:104E2000002F22F0010241E80023002BF5D1016B95
:104E3000012909D101680C3151E8002F22F010023C
:104E400041E80023002BF5D1202180F842100021F9
:104E50000163704708B590F84210222901D0022062
:104E600008BD82684FF480539A4201D1016921B193
:104E7000816A9A421BD04AB10AE00268816A52688C
:104E8000C2F308020A80816A891C08E0026972B1D3
:104E90000268526802F07F020A70816A491C8162CE
:104EA000C18D491E0904090CC18503D01BE00268AD
:104EB0005268F1E70168CA6822F02002CA600168FE
:104EC000CA6822F48072CA6001684A6922F001024D
:104ED0004A61202180F8421000214163026B012ABF
:104EE00003D0FEF757FA002008BD016301680C31BA
:104EF00051E8002F22F0100241E80023002BF5D1E9
:104F000001680A68D20602D50A6849680091818D55
:104F1000FEF749F8E7E7000070B50446006801694C
:104F2000E26821F44051114301612169A0680843FE
:104F3000616908432168CA6841F20C639A430243DD
:104F4000CA6020684169A26921F44071114341613E
:104F50001E492068884202D1FDF716F801E0FDF7EE
:104F600003F800EBC00101EB0012606864218000CF
:104F7000B2FBF0F3B3FBF1F36FF018067343B2FB2F
:104F8000F0F5B2FBF0F605EB8305322303EB0515D4
:104F9000B5FBF1F5B6FBF1F605F0F00505EB0615EE
:104FA000B2FBF0F6B2FBF0F0B0FBF1F06FF01802DC
:104FB000504306EB800003EB0010B0FBF1F02168DA
:104FC00000F00F002844886070BD000000380140E8
:104FD00081628285C28500214164222180F84210CD
:104FE000016921B10168CA6842F48072CA6001682F
:104FF0004A6942F001024A610068C16841F020013B
:10500000C160002070472DE9F041984617460E46D2
:105010000446069D27E0681C25D02DB1FCF734FC22
:10502000A0EB0800A8421ED920680C3050E8001FF1
:1050300021F4D07140E80012002AF5D12068143024
:1050400050E8001F21F0010140E80012002AF5D1CC
:10505000202084F8410084F84200002084F84000B9
:105060000320BDE8F0812068006836EA000004D023
:105070000020B842CFD00020F3E70120F9E70FB4B9
:10508000802130B5A1B0054626AB6846259A02F0CE
:105090009FFB044682B24FF0FF3369462846FEF775
:1050A000C5F921B0204630BC5DF814FB0148FDF77E
:1050B0007DBF0000F8030020FEE74100080218BF92
:1050C00004200A0E18BF40F001004FF07F4232EA80
:1050D000010108BF40F00200012808BF0520704709
:1050E0000907090E002804DB00F1E02080F8001415
:1050F000704700F00F0000F1E02080F8141D7047A9
:105100000121FBF733B900210846FBF7F1B86FF036
:105110005E010807FBF72AB92DE9F04D0D4614464C
:105120004FF07F41B1EB440F9EBF4FF0FF3129603C
:10513000BDE8F08D4FF0004040EA0421C4F3C750B1
:10514000783810F01F024A4B4FEA601CC2F120066B
:105150007B44C4F3C750A0F178004FEA601003EB22
:10516000800053F82C3008BFD0E901C612D0D0F827
:1051700004C093402CFA06F73B4387680CFA02FC04
:1051800027FA06F8C06807FA02F2F0404CEA080C69
:1051900042EA0006A3FB0132ACFB01C0A6FB0161A1
:1051A00001EB0C068E4234BF4FF0010C4FF0000CA7
:1051B000C1186144BCF1000F02D0814202D903E062
:1051C000814201D2012000E00020104400F12002C1
:1051D0004FEA92188006CA0C40EA42304F03C5F8E5
:1051E0000080FBF76EFA82463846FBF773FA6FF0E1
:1051F0001201FBF7BBF807463046FBF76BFA6FF07E
:105200002501FBF7B3F8834639465046FAF7E6FF27
:105210005946FAF7E3FF00F500666FF30B065146B7
:105220003046FBF72DF83946FBF72AF85946FBF7CD
:105230002AF81049FBF72AF807460F493046FBF7D2
:1052400025F83946FAF7CAFF07460C493046FBF7FE
:105250001DF83946FAF7C2FF14F0004F08BFBDE849
:10526000F08DC8F1805180F000402960BDE8F08DDC
:105270001C300000DB0FC92F22AAFD290000C92F16
:1052800002E008C8121F08C1002AFAD1704770470F
:10529000002001E001C1121F002AFBD1704700006D
:1052A00001490860704700004C01002070B50446B9
:1052B00000256FF02F0608E02068411C216000786F
:1052C00005EB850106EB410145182068007800F0E8
:1052D000E5FA0028F0D1284670BD00002DE9FF4F07
:1052E00089B016AEDDF8688096E8B0084FF0FF365A
:1052F00022462B4620462946FBF788FA0ED1324635
:10530000AC4B20462946FBF799FA07D332466FF497
:10531000801320462946FBF779FA0BD2CDF810808E
:105320008DE8B00809AE96E80F0000F06FF90DB0F7
:10533000BDE8F08F0022134620462946FBF766FAA7
:1053400004D2012085F00045079001E0002007907D
:105350005FEA485000D406279749C5F30A56C5F3BB
:10536000130C20464CEA01010022944BA6F2FF36B2
:10537000FBF7A9F8924A934BFBF7ABF881468A46B4
:105380003046FBF7ACF9904A904BFBF7A2F8904AF5
:10539000904BFAF7F7FF4A465346FAF7F3FFFBF74D
:1053A000E9F90646FBF79BF981468B4A8B4B019145
:1053B000FBF78FF800228A4BFAF7E4FFFBF7DAF9E4
:1053C0000590FBF78CF9874A874BFBF782F88246FA
:1053D00003914846854A864B0199FBF77AF8524675
:1053E000039BFBF770F881468A4602460B46FBF7A3
:1053F00070F8CDE90310059840F2FF31000500EB8D
:1054000001500290DDE9031000227A4BFBF7D3F83C
:105410000022794BFAF7B6FF02460B46DDE903108E
:10542000FBF7C9F80022754BFAF7ACFF02460B46B2
:10543000DDE90310FBF7BFF8059108904A46534693
:1054400000204FF08041FBF73EF8059B089AFAF7E1
:1054500099FFCDE90310012248465146FBF71AF99E
:10546000DDE90332FBF7A7F80022534BFAF78AFF76
:105470000022029BFBF72DF881468A4602460B4626
:105480000091029020462946FBF7C0F908D200227D
:10549000594B48465146761EFBF78DF80091029015
:1054A00006F16300C72801D2042000E005208146F0
:1054B0005FEA08501ED5524A524B20462946FBF758
:1054C000BDF912D80022504B20462946FBF79EF921
:1054D0000BD2B74202DDBF1B7F1E00E000274FF05A
:1054E000000948F480684E4604E01FB15FEA485066
:1054F00000D57F1ECB4502D9ABEB090000E00020B0
:1055000082465FEA887004D5B9F1000F01D04FF0F0
:10551000000A3EB120462946009B029AFBF74BF851
:1055200004460D460B980890079808B185F0004591
:1055300028F40060CDE903A08DE8B0000DF1240C43
:105540009CE80F0000F062F80446B9F1000F2FD07C
:10555000651C22465FEA886001D5452000E0652091
:10556000DDE909410C9BA04702AC0523A9F101022A
:1055700000210A2084E80F00F00F002E00DA7642A6
:10558000CDE90060DDE909012A460C9B00F0FFF936
:1055900004465FEA887007D40AE02246DDE9095133
:1055A000641C20200C9BA8470898211A5945F4D365
:1055B0002046BCE6FFFFEF7F0000F03F0000F83F11
:1055C00061436F63A787D23FFB799F501344D33F5A
:1055D000B3C8608B288AC63F71A379094F930A40EC
:1055E0000000E03FEF39FAFE422EE63F1655B5BB0C
:1055F000B16B024000002C40000024400000184025
:105600002D431CEBE2361A3F80842E412DE9FF4FDB
:105610008DB01AACDDE91D9794E860044FF0FF38B7
:1056200000242A46334628463146FBF7EFF802D0DD
:1056300003218FA209E042466FF4801328463146C9
:10564000FBF7E4F809D204218AA2CDE90021CDE9D3
:1056500002970DAC94E80F0007E14246874B2846BD
:105660003146FBF7EBF807D2790702D5042184A273
:10567000EBE7032184A2E8E70022844B2846314669
:10568000FBF7DCF806D30022814B28463146FBF7B6
:10569000BDF80BD28DE86004CDE903970DAC94E81A
:1056A0000F00FFF71BFE11B0BDE8F08F002002468F
:1056B0000346029028463146FBF7A8F803D20120A2
:1056C00086F00046029078050AD44FF0060A07E0FB
:1056D00005A830210155641CAAF1010A202C04D22E
:1056E000DFF8B081BAF1090FF2D828463146FBF74E
:1056F00041F88346FAF7F3FF2A463346FAF7E6FE07
:1057000008EBCA030393D3E90023FAF7E2FECDE9DD
:105710000001FBF74EF88046FAF7F2FFDDE90023BF
:10572000FAF7D4FE00225C4BCDE90001FBF786F8C6
:105730000FD208F101008046FAF7E2FF039BD3E99C
:105740000023FBF77BF813D84FF000080BF1010B97
:105750000EE0DDE9000100224F4BFBF757F807D3BD
:1057600008F00100401E10EA080F01D108F10108FD
:10577000BAF1000002D00A2205A92AE05846FAF739
:10578000AEFF2A463346FAF7A1FEDFF80C81054644
:105790000E4600224346FBF751F806D90022434645
:1057A00028463146FBF74AF821D25FEACB701ED07B
:1057B0000BF1010B1BE000BFB8FBF2F502FB1583F8
:1057C00030330B55B8FBF2F3401E641C5FEA03084C
:1057D00005D0202CF0D31AE00A55641C00E03022DA
:1057E000202C14D2401EF7D22E200855641C0A200B
:1057F00005A9202C0BD29BFBF0F300FB13B2303237
:105800000A559BFBF0F2641C5FEA020BF1D1B8076A
:1058100014D4F80712D0B9F1000F06D0029907F09E
:105820000C00084301D0A9F10109302005A94C451D
:1058300004D2202C12D20855641CF8E7202C0DD27B
:10584000029808B12D2106E0780701D52B2102E04E
:10585000380703D5202105A80155641C05A9039725
:105860008DE812020DAD95E80F0000F015F91AE76A
:105870006E616E00666E692D00000000FFFFEF7F15
:10588000666E692B00000000666E690065CDCD4133
:1058900065CDCDC1208100080000E03F30380928E7
:1058A00001D801207047002070472DE9FF5F914625
:1058B0008A468346DDE90E20DDE91341DDE9116703
:1058C000DDF840C05FEA81784FF030051AD45CB152
:1058D0005FEAC17808D001F00C0858EA0C0803D040
:1058E000641E01E01554401CB84204D22028F9D3AC
:1058F00001E01554401C5FEAC17803D0A04201D2F8
:105900002028F6D35FEAC16825D55FEA41580AD45A
:1059100048B1B84201D0A04205D1401E03D0102E9C
:1059200003D1401E04E0102E02D0022E0AD00EE059
:105930008E0603D420281ED2782606E020281AD20C
:10594000582602E0202816D262261654401C202831
:1059500011D21554401C20280DD2BCF1000F01D0EB
:105960002D2506E04D0701D52B2502E00D0702D5B8
:1059700020251554401CCDE90020CDE902414A46BE
:105980005146584600F088F804B0BDE8F09F2DE974
:10599000F04F8FB099468B46DDE91818DDE91C639E
:1059A000DDE91A4792468646002209B923F0100322
:1059B000580507AD00D5C9B1B1FBF4F004FB1010D8
:1059C000C0B20A2801D2303009E05FEA836C02D508
:1059D0004FF0410C01E04FF0610C60440A38B1FB1C
:1059E000F4F1A854521C09B1202AE5D3CDF808805F
:1059F000CDE90563CDE90052CDE903474B46524658
:105A000059467046FFF751FF0FB0BDE8F08F2DE902
:105A1000FF4F8FB01CACDDE9239594E8030820AC60
:105A200094E8C004002450EA010201D125F01005D9
:105A30006A050DF11C0802D550EA010217D0324662
:105A40003B46FAF771FBD2B20A2A01D2303206E0A5
:105A5000AB0601D5412300E061231A440A3A08F855
:105A60000420641C50EA010201D0202CE7D3CDE9C8
:105A70000084CDF808B0CDE90595CDE9036A0FAFF4
:105A800097E80F00FFF711FF13B0BDE8F08F9A42BF
:105A900000D28854704770472DE9FF5F80460FA8F9
:105AA000DDF838B090E8C004144691465FEA8A7089
:105AB00014D1354607E02246641C2020C446039BCF
:105AC0000199E0476D1CBD42F5D307E02246641CF6
:105AD000761E039B1BF806000199C047002EF5D1E6
